:100000000C94A7060C94EB060C94EB060C94EB06F0
:100010000C94EB060C94EB060C94EB060C94EB069C
:100020000C94EB060C94EB060C94AC0F0C94700F34
:100030000C949E1F0C94EB060C94EB060C94EB06B0
:100040000C94EB060C94EB060C94EB060C94EB066C
:100050000C94EB060C9420200C94EB060C94EB060D
:100060000C94EB060C94EB060C94EB060C94EB064C
:100070000C94EB060C94EB060C94EB060C94EB063C
:100080000C94EB060C94EB060C94EB060C94EB062C
:100090000C94EB060C94EB060C94EB060C94EB061C
:1000A0000C94EB060C94EB060C94EB06351E1F200B
:1000B000212223242526272D2E2A2B141A08151732
:1000C0001C180C12132F303139041607090A0B0DB6
:1000D0000E0F33340028E1001D1B061905111036E0
:1000E000373800E5E0E3E200002C00000000C0E744
:1000F00065E4351E1F20212223242526272D2E2AA4
:100100002B141A09130A0D0F181C332F30312A042F
:10011000151617070B11080C12340028E1001D1BDF
:100120000619050E1036373800E5E0E3E200002C32
:1001300000000000C0E765E4351E1F2021222324B3
:100140002526272F302A2B343637131C090A06158B
:100150000F382E3139041208180C070B1711162D01
:100160000028E10033140D0E1B05101A191D00E5BF
:10017000E0E3E200002C00000000C0E765E4351E6B
:100180001F20212223242526272D2E2A2B14071554
:100190001A050D091813332F30312A04160B170ACC
:1001A0001C1108120C340028E1001D1B1006190E4A
:1001B0000F36373800E5E0E3E200002C00000000D5
:1001C000C0E765E401010101010101010101010133
:1001D000010101010101010101010101010101010F
:1001E0000101010101010101010101010001010001
:1001F00001010101010101010101005201010100A0
:100200000001000000000150514F290101010101CE
:1002100001010101010101010101010101010101CE
:1002200001010101010101010101010101010101BE
:1002300001010001010001010101010101010101B0
:1002400000010101010000010000000001010101A5
:10025000293A3B3C3D3E3F4041424344450101C2B7
:1002600052010101010101B2014A49C40150514F3B
:10027000010146474801C34D000101004C01B5A8EA
:10028000A9AA014B4E4C00010101010000C1000070
:10029000000001010101C5C6C7C80101010101013A
:1002A0000101010101C5C8010101010101010101B3
:1002B0000101010101C70101010101010101000169
:1002C00001000101C601010101010101000101015B
:1002D000010000010000000001010101F1A6218AD6
:1002E000228A2913F1A7018C028C048C088C0A0045
:1002F0002530313662003A200025303258000A722B
:100300002F63203031323334353637383941424368
:100310004445460A000A002530325800626F756E67
:100320006365213A20005B735D004B6579626F6104
:1003300072642073746172742E0A005553422063F4
:100340006F6E666967757265642E0A005B575D00A3
:100350005B535D005B525D005B445D005B435D0091
:1003600005010906A101050719E029E71500250186
:10037000950875018102950175088101050819012B
:1003800029059505750191029501750391010507F0
:10039000190029FF150025FF950675088100C00585
:1003A000010902A1010901A1000509190129051589
:1003B00000250195057501810295017503810105EF
:1003C00001093009311581257F95027508810609DB
:1003D000381581257F950175088106050C0A3802BC
:1003E0001581257F950175088106C0C0050109802A
:1003F000A101850216010026B7001A01002AB700E4
:10040000751095018100C0050C0901A10185031635
:100410000100269C021A01002A9C02751095018198
:1004200000C00631FF0974A1010975150025FF956B
:1004300020750881020976150025FF952075089121
:1004400002C005010906A101050719E029E7150009
:1004500025019508750181020508190129059505F1
:10046000750191029501750391010507190029771E
:1004700015002501957875018102C0120110010057
:10048000000008EDFE606001000102000109028D1C
:1004900000050100A0320904000001030101000968
:1004A0002111010001223F000705810308000A090C
:1004B0000401000103010200092111010001224D84
:1004C000000705820308000A090402000103000076
:1004D00000092111010001223600070583030800ED
:1004E0000A090403000203000000092111010001B0
:1004F00022200007058403200001070504032000D3
:100500000109040400010300000009211101000198
:1005100022390007058503100001040309041203B2
:100520006700650065006B006800610063006B0098
:1005300000000A03470048003600300000000A00AF
:100540002530325820006B6579626F6172645F728A
:1005500065706F72743A20000A0025303258006BC3
:100560006579626F6172645F7365745F6C65643A2C
:10057000200064656C5F6B65795F6269743A206323
:10058000616E27742064656C3A20253032580A0069
:100590006164645F6B65795F6269743A2063616E60
:1005A0002774206164643A20253032580A00646F51
:1005B0006E652E0A00626F6F676D616769632073F5
:1005C00063616E3A202E2E2E2000290A0025750028
:1005D0002F002575005D280025640020002564009B
:1005E000200025640020002564007C00253032585E
:1005F000006D6F7573656B6579205B62746E7C78D6
:100600002079207620685D287265702F61636C29DF
:100610003A205B003F004E4B524F3A206F66660A0D
:10062000004E4B524F3A206F6E0A0074696D65722E
:100630005F636F756E743A202530346C580A006B16
:100640006579626F6172645F6E6B726F3A202558D4
:100650000A006B6579626F6172645F69646C653A08
:100660002025580A006B6579626F6172645F707251
:100670006F746F636F6C3A2025580A00686F73744B
:100680005F6B6579626F6172645F6C656473282962
:100690003A2025580A000A092D2053746174757395
:1006A000202D0A004743433A20342E332E33204175
:1006B00056522D4C4942433A20312E362E37204196
:1006C00056525F415243483A20617672350A004FD4
:1006D0005054494F4E533A204C55464120424F4FBB
:1006E000544D41474943204D4F5553454B455920A3
:1006F00045585452414B455920434F4E534F4C455A
:1007000020434F4D4D414E44204E4B524F203430EC
:1007100039360A004255494C443A20756E6B6E6F6B
:10072000776E202831363A30393A303120446563CB
:100730002031312032303135290A005649443A20DF
:10074000307846454544286765656B6861636B2969
:10075000205049443A2030783630363028474836E1
:100760003029205645523A203078303030310A0056
:10077000444553433A20742E6D2E6B2E206B6579C1
:10078000626F617264206669726D7761726520665E
:100790006F7220474836300A000A092D20566572CC
:1007A00073696F6E202D0A000A6D6F7573653A20AC
:1007B0006F66660A000A6D6F7573653A206F6E0A80
:1007C000000A6B6579626F6172643A206F66660A2F
:1007D000000A6B6579626F6172643A206F6E0A007D
:1007E0000A6D61747269783A206F66660A000A6D54
:1007F00061747269783A206F6E0A000A64656275E6
:10080000673A206F6E0A000A64656275673A206F66
:1008100066660A000A0A626F6F746C6F61646572C3
:100820002E2E2E2000433E20006565636F6E6669A4
:10083000673A0A000A002575002E6E6B726F3A2027
:10084000000A002575002E737761705F6261636B2B
:10085000736C6173685F6261636B73706163653A47
:1008600020000A002575002E737761705F67726142
:1008700076655F6573633A20000A002575002E6E69
:100880006F5F6775693A20000A002575002E73773F
:1008900061705F72616C745F726775693A20000AFB
:1008A000002575002E737761705F6C616C745F6CEE
:1008B0006775693A20000A002575002E6361707320
:1008C0006C6F636B5F746F5F636F6E74726F6C3AA3
:1008D00020000A002575002E737761705F636F6ECC
:1008E00074726F6C5F636170736C6F636B3A20003E
:1008F0000A0025303258006B65796D61705F636F57
:100900006E6669672E7261773A20000A00257500CD
:100910002E6D6F7573653A20000A002575002E6BE9
:100920006579626F6172643A20000A002575002EB5
:100930006D61747269783A20000A002575002E6591
:100940006E61626C653A20000A00253032580064FE
:10095000656275675F636F6E6669672E7261773A6D
:1009600020000A0025750064656661756C745F6C13
:10097000617965723A20000A092D204D616769632B
:10098000202D0A643A0964656275670A783A096439
:1009900065627567206D61747269780A6B3A0964E3
:1009A00065627567206B6579626F6172640A6D3A82
:1009B000096465627567206D6F7573650A763A091B
:1009C00076657273696F6E0A733A09737461747530
:1009D000730A633A09636F6E736F6C65206D6F64A1
:1009E000650A302D343A096C61796572302D3428EE
:1009F0004631302D4634290A506175733A09626FC9
:100A00006F746C6F616465720A653A09656570722E
:100A10006F6D0A6E3A094E4B524F0A000A092D209B
:100A2000436F6E736F6C65202D0A4553432F713AE7
:100A300009717569740A6D3A096D6F7573656B6537
:100A4000790A004C25640A00433E20003F004D3ED9
:100A5000200077686572652064656C74613A206374
:100A60007572736F723D25642C20776865656C3DE7
:100A700025640A53656520687474703A2F2F656E7B
:100A80002E77696B6970656469612E6F72672F7765
:100A9000696B692F4D6F7573655F6B6579730A00BC
:100AA0000A092D204D6F7573656B6579202D0A45F8
:100AB00053432F713A09717569740A313A096465B3
:100AC0006C6179282A31306D73290A323A09696ECE
:100AD00074657276616C286D73290A333A096D6109
:100AE000785F73706565640A343A0974696D655F8F
:100AF000746F5F6D61780A353A09776865656C5F78
:100B00006D61785F73706565640A363A0977686568
:100B1000656C5F74696D655F746F5F6D61780A0AFB
:100B2000703A097072696E742076616C7565730A2B
:100B3000643A097365742064656661756C74730A40
:100B400075703A092B310A646F776E3A092D310AB4
:100B5000706775703A092B31300A7067646F776E71
:100B60003A092D31300A0A7370656564203D2064AE
:100B7000656C7461202A206D61785F7370656564AF
:100B8000202A2028726570656174202F2074696D99
:100B9000655F746F5F6D6178290A004D3E004D25D9
:100BA000643E20003F007365742064656661756C67
:100BB000740A00433E20000A00257500363A20776B
:100BC0006865656C5F74696D655F746F5F6D617892
:100BD0003A20000A00257500353A20776865656C73
:100BE0005F6D61785F73706565643A20000A002567
:100BF0007500343A2074696D655F746F5F6D61785C
:100C00003A20000A00257500333A206D61785F7341
:100C1000706565643A20000A00257500323A206943
:100C20006E74657276616C286D73293A20000A0033
:100C3000257500313A2064656C6179282A31306D60
:100C400073293A20000A092D2056616C75657320BE
:100C50002D0A006D6B5F776865656C5F74696D6503
:100C60005F746F5F6D6178203D2025640A006D6BB5
:100C70005F776865656C5F6D61785F7370656564EB
:100C8000203D2025640A006D6B5F74696D655F749B
:100C90006F5F6D6178203D2025640A006D6B5F6D8C
:100CA00061785F7370656564203D2025640A006D7E
:100CB0006B5F696E74657276616C203D2025640AF5
:100CC000006D6B5F64656C6179203D2025640A00CE
:100CD0006D6B5F776865656C5F74696D655F746F78
:100CE0005F6D6178203D2025640A006D6B5F776839
:100CF00065656C5F6D61785F7370656564203D202C
:100D000025640A006D6B5F74696D655F746F5F6D5C
:100D10006178203D2025640A006D6B5F6D61785F0E
:100D20007370656564203D2025640A006D6B5F6902
:100D30006E74657276616C203D2025640A006D6BCF
:100D40005F64656C6179203D2025640A00001124F0
:100D50001FBECFEFDAE0DEBFCDBF04B603FE24C076
:100D60008091C4019091C501A091C601B091C701C5
:100D70008750904BA740B04BB9F41092C401109229
:100D8000C5011092C6011092C70114BE84B7877FB7
:100D900084BF88E10FB6F8948093600010926000E1
:100DA0000FBEE0E0F8E3099511E0A0E0B1E0E0EB70
:100DB000FBE502C005900D92A631B107D9F711E00D
:100DC000A6E1B1E001C01D92A43CB107E1F70E9489
:100DD0007A0B0C94D62D0C940000FF93EF93E091C6
:100DE0001601F0911701309709F00995EF91FF91E5
:100DF0000895FC018591803011F0EFDFFBCF08955D
:100E0000FF27E0E230E247FF0CC0419597FF09C0A1
:100E1000EDE26095709580959095611D711D811D25
:100E2000911D27FF02C0219530E350E2AA27660FEB
:100E3000771F881F991FAA1FA41710F0A41B639582
:100E40005A95A9F7AA3008F0A95FA05DAF93F39572
:100E5000611571058105910541F7ED3211F4EF93AC
:100E6000F395F21718F43F93F395FBCF8F91B5DF0D
:100E7000FA95E1F70895E991F9918591803021F093
:100E8000853219F0AADFF9CF089520E0E894559152
:100E90005532C1F3503311F4689455915A3348F4E4
:100EA000505390F3220F022E220F220F200D250FF8
:100EB000F4CF0EF4219589919991533619F3533754
:100EC00029F1533559F1BC0188279927E8945C36FC
:100ED00021F48991999168945591543639F446EFEB
:100EE0007EF077FF0DC08FEF9FEF0AC055374AE0C5
:100EF00039F0583540E121F0523642E009F00895CA
:100F0000FF93EF937DDFEF91FF91B7CFFF93EF93C7
:100F1000FC0181918030B9F360DFFBCFFF93EF9349
:100F200068DFF1CFDF93CF93CDB7DEB72596A3DF90
:100F3000CF91DF9108959EE0799FF0011124E60F93
:100F4000F11D96E4899FC0011124E80FF91FE455B3
:100F5000FF4FE4918E2F0895E82FF0E0EE0FFF1F72
:100F6000E45AFE4F25913491C9010895E82FF0E02D
:100F7000EE0FFF1FE85EFE4F8081918108958AB1D8
:100F8000807D8AB98BB1807D8BB908950E94BF079F
:100F900080B38C7F80BB81B3836081BB6E98769A6F
:100FA0008AB18F728AB98BB1806D8BB987B18F731B
:100FB00087B988B1806C88B984B1847084B985B1EF
:100FC0008B6F85B980E090E0FC01E85EFE4F1182F6
:100FD0001082FC01EE5DFE4F1182108202968A3073
:100FE000910591F708952F923F924F925F926F92E1
:100FF0007F928F929F92AF92BF92CF92DF92EF92A9
:10100000FF920F931F93DF93CF93CDB7DEB728974F
:101010000FB6F894DEBF0FBECDBF42E2A42E41E072
:10102000B42E10E005E0123091F0133028F41123B3
:1010300041F01130A1F408C0133061F0143079F49C
:101040000CC0509A58980BC0519A599808C0529A9F
:101050005A9805C0539A5B9802C0559A5D9880EAE9
:101060008A95F1F72FB1799905C042E050E05A8393
:10107000498302C01A821982669904C034E0232E83
:10108000312C02C02224332486B1482F552747FD36
:101090005095409550954427550F441F552783E0A0
:1010A000440F551F8A95E1F7369904C0B0E14B2EE5
:1010B000512C02C0442455241E9904C0A0E26A2E7B
:1010C000712C02C0662477244C9904C0F0E48F2E62
:1010D000912C02C088249924199904C0E0E8CE2EEE
:1010E000D12C02C0CC24DD24189B05C01F9B03C05B
:1010F000EE24FF2403C0E12C71E0F72E1D9905C0FA
:1011000060E072E07C836B8302C01C821B821C99AE
:1011100003C0A0E0B4E002C0A0E0B0E089B199272C
:1011200087FD9095809590958827990F881F99271E
:10113000982F8827990F990F990F4E9905C0E0E0D5
:10114000F0E1FE83ED8302C01E821D821B9905C063
:1011500060E070E278876F8302C018861F8230E0FB
:10116000E1E0F0E02E273F272170307069817A811D
:10117000262B372B22293329242B352B24293529BB
:1011800026293729282939292C293D292E293F2983
:10119000EB81FC812E2B3F2B2A2B3B2B282B392B31
:1011A0004D815E81242B352B6F817885262B372B43
:1011B000D5018D919C9111978217930799F12D93E9
:1011C0003C9380910001882359F18091A50180FF13
:1011D00004C08CE193E00E94F9068091A50180FF94
:1011E00017C000D000D0EDB7FEB7319647E153E00D
:1011F000ADB7BEB712965C934E93119780910001E4
:10120000828313820E9492070F900F900F900F908D
:101210008091A50180FF04C085E193E00E94F9065A
:10122000009300010E94BF071F5F62E070E0A60EFE
:10123000B71E153009F0F7CE80910001882391F197
:10124000815080930001882329F080EA9FE0019774
:10125000F1F728C080912201909123019093190108
:1012600080931801809124019091250190931B0196
:1012700080931A01809126019091270190931D017E
:1012800080931C01809128019091290190931F0166
:1012900080931E0180912A0190912B01909321014E
:1012A0008093200181E028960FB6F894DEBF0FBE30
:1012B000CDBFCF91DF911F910F91FF90EF90DF9005
:1012C000CF90BF90AF909F908F907F906F905F90E6
:1012D0004F903F902F900895CF92DF92EF92FF9220
:1012E0000F931F93CF93DF938EEF92E00E94F90646
:1012F00008E111E0C0E0D0E069EFC62E62E0D62E32
:1013000050EFE52E52E0F52E00D000D0EDB7FEB73D
:10131000D282C182D483C3830E9492070F900F9020
:101320000F900F9086EF92E00E94F906F8018191EC
:1013300091918F010E94631F00D000D0EDB7FEB7DE
:10134000F282E182948383830E9492070F900F9030
:101350000F900F908EEE92E00E94F9062196C53014
:10136000D10591F6DF91CF911F910F91FF90EF90F2
:10137000DF90CF90089581FF02C0229A01C0229889
:101380002A980895809130018F5F8093300162E345
:101390000E94722D9923A9F51092300180912E019F
:1013A000882379F18091BB01843049F59091E9005F
:1013B0008091EC0080FD02C080E001C080E89F7059
:1013C000982B84E08093E9008091EB0080FF14C0AB
:1013D0008091EE0087FD03C00FC01092F100809154
:1013E000E80085FDFACF8091E80080FF05C080917C
:1013F000E8008E778093E8009F709093E900109248
:101400002E01089580912D010895682F8FB7F894CB
:1014100010922E018FBF8091BB01843011F08FEFAD
:1014200008959091E9008091EC0080FD02C080E079
:1014300001C080E8392F3F70382B84E08093E900A9
:101440008091EB0080FF43C08091EE0087FF3FC09A
:1014500080912F01882321F08091E80085FF37C01B
:1014600010922F0125E040EA5FE012C08091BB019D
:10147000843069F58091EB0085FD29C0222321F499
:1014800081E080932F0123C02150CA010197F1F719
:101490008091E80085FFEACF6093F1008091E80039
:1014A00085FD0AC08091E80080FFFCCF8091E800B4
:1014B0008E778093E80006C09FB7F89481E0809310
:1014C0002E019FBF3F703093E90080E008953F7088
:1014D0003093E9008FEF0895DF93CF9300D00F9200
:1014E000CDB7DEB7AC018091BB01843029F583E034
:1014F0008093E9002FEF95ED05C0892F8A95F1F7CC
:10150000222329F08091E800215085FFF6CF8091B9
:10151000E80085FF11C05B834A8383E08983CE01A5
:10152000019663E070E040E050E00E94120E80916E
:10153000E8008E778093E8000F900F900F90CF9186
:10154000DF910895DF93CF9300D00F92CDB7DEB730
:10155000AC018091BB01843029F583E08093E900E0
:101560002FEF95ED05C0892F8A95F1F7222329F0F9
:101570008091E800215085FFF6CF8091E80085FF3B
:1015800011C05B834A8382E08983CE01019663E0C8
:1015900070E040E050E00E94120E8091E8008E77EB
:1015A0008093E8000F900F900F90CF91DF910895F6
:1015B000AC018091BB01843001F582E08093E900A9
:1015C0002FEF95ED05C0892F8A95F1F7222329F099
:1015D0008091E800215085FFF6CF8091E80085FFDB
:1015E0000CC0CA0165E070E040E050E00E94120EBD
:1015F0008091E8008E778093E80008950F931F9301
:10160000182F092F8091BB01843009F04DC08091C3
:1016100001018823E9F080910C018823C9F085E05D
:101620008093E9009FEF25E105C0822F8A95F1F7AD
:10163000992329F08091E800915085FFF6CF8091A1
:10164000E80085FF31C0812F902F60E170E018C065
:1016500081E08093E9009FEF25ED05C0822F8A95F8
:10166000F1F7992329F08091E800915085FFF6CF9A
:101670008091E80085FF18C0812F902F68E070E00E
:1016800040E050E00E94120E8091E8008E77809337
:10169000E800A1E3B1E0212F302FC901FC0180E176
:1016A00001900D928150E1F71F910F91089580E50F
:1016B00093E00E94F906089584E593E00E94F906FC
:1016C000089588E593E00E94F9061092BA01089502
:1016D0008CE593E00E94F9068091BA01882349F4D1
:1016E0000E94F00E0E94510F8091E200846080936E
:1016F000E200089584B7877F84BF88E10FB6F8942D
:1017000080936000109260000FBE80E090E020E8BF
:101710000FB6F89420936100809361000FBE0E9481
:101720008C120E94F00E0E94510F8091E2008460A2
:101730008093E20085E09AE00E943C1F78948091BB
:10174000BB018430E1F78BE393E00E94F9060E942D
:10175000701382E091E00E94EE118AE293E00E9411
:10176000F90610C086E293E00E94F9060E94761FF7
:101770008091B901882331F00E94CA1F882311F09B
:101780000E94270D8091BB01853061F30E94C11238
:10179000F9CF8091BD01833009F457C0843030F413
:1017A000813071F0823009F0B1C098C08A3009F4FC
:1017B00085C08B3009F46AC0893009F0A7C020C009
:1017C0008091BC01813A09F0A1C08091E800877F37
:1017D0008093E8008091C0019091C101892B21F490
:1017E00081E391E060E103C080E090E060E070E0C0
:1017F0000E943D0D8091E8008B778093E80008956A
:101800008091BC01813209F081C08091C00190912A
:10181000C101009719F0049709F078C08091E800A1
:10182000877F8093E80005C08091BB01882309F47D
:101830006DC08091E80082FFF7CF8091F100809326
:101840002D018091E8008B771CC08091BC01813A0A
:1018500009F05CC08091C0019091C101892B09F011
:1018600055C08091E800877F8093E8008091E80070
:1018700080FFFCCF809101018093F1008091E8000E
:101880008E778093E8000E949D0E08958091BC01A0
:101890008132E1F58091C0019091C101892BB1F5B0
:1018A0008091E800877F8093E8000E949D0E8091E0
:1018B000BE01809301010E94D61308958091BC015E
:1018C000813221F58091E800877F8093E8000E94B3
:1018D0009D0E8091BF0180932C0108958091BC01E1
:1018E000813AA1F48091E800877F8093E80080919D
:1018F000E80080FFFCCF80912C018093F100809163
:10190000E8008E778093E8000E949D0E089581E0A4
:1019100061EC42E00E94650E82E061EC42E00E94D0
:10192000650E83E061EC42E00E94650E84E061ECAC
:1019300042E20E94650E85E061EC42E10E94650E84
:1019400008958CE493E00E94F9060E94C71F089551
:10195000DA019330C1F0943030F4913051F092308C
:1019600009F06DC00BC0913221F1923209F067C0CD
:101970003FC0EBE7F4E022E130E065C0EDE8F4E0E1
:101980002DE830E060C0813051F0813020F08230AD
:1019900009F055C008C0EAE1F5E0849107C0EEE126
:1019A000F5E0849103C0E2E3F5E08491282F30E074
:1019B0004AC06230A1F0633028F4662341F0613000
:1019C000F1F508C0633071F06430C9F50EC0EFE97D
:1019D000F4E002C0E8EBF4E029E030E034C0E1EDEF
:1019E000F4E0FACFEAEEF4E0F7CFEAE0F5E0F4CF86
:1019F0006230B1F0633028F4662341F06130F9F4CD
:101A00000AC0633091F06430D1F414C0E0E6F3E032
:101A10002FE330E018C0EFE9F3E02DE430E013C02D
:101A2000ECEEF3E026E330E00EC0E2E2F4E020E288
:101A300030E009C0E2E4F4E029E330E004C0E0E093
:101A4000F0E020E030E0ED93FC93C901089580E1DF
:101A500089BD82E189BD09B400FEFDCF8091D80027
:101A60008F7D8093D8008091E00082608093E000B9
:101A70008091E00081FDFCCF08959C014091C2015E
:101A80005091C3014617570718F4F90190E043C07D
:101A90006115710511F0AB01F8CF8091E8008E77E8
:101AA0008093E80040E050E0F0CF8091BB018823B4
:101AB00009F447C0853009F446C08091E80083FDF1
:101AC00044C08091E80082FD36C08091E80080FF2C
:101AD00022C08091F3009091F200782F60E0292FCE
:101AE00030E0262B372B07C081918093F1004150C5
:101AF00050402F5F3F4F4115510519F028303105F7
:101B000098F390E02830310509F491E08091E800E5
:101B10008E778093E8004115510539F6992329F60F
:101B20000AC08091BB01882361F0853061F080910B
:101B3000E80083FD0AC08091E80082FFF2CF80E0D8
:101B4000089582E0089583E0089581E008959C015E
:101B50004091C2015091C3014617570718F4F9018B
:101B600090E044C06115710511F0AB01F8CF809190
:101B7000E8008E778093E80040E050E0F0CF80915D
:101B8000BB01882309F448C0853009F447C080911F
:101B9000E80083FD45C08091E80082FD37C0809158
:101BA000E80080FF23C08091F3009091F200782F2D
:101BB00060E0292F30E0262B372B08C084918093DA
:101BC000F1003196415050402F5F3F4F4115510574
:101BD00019F02830310590F390E02830310509F4F0
:101BE00091E08091E8008E778093E80041155105DF
:101BF00031F6992321F60AC08091BB01882361F058
:101C0000853061F08091E80083FD0AC08091E80092
:101C100082FFF2CF80E0089582E0089583E0089586
:101C200081E00895BF92CF92DF92EF92FF920F93DF
:101C30001F93CF93DF93182F092F7B016A010E9416
:101C4000BE0EB82E8823B1F5812F902F9C01E9019B
:101C5000C114D10439F0F60180819181E81AF90AA2
:101C6000C80FD91F00E010E022C08091E80085FD78
:101C700016C08091E8008E778093E800C114D104EB
:101C800049F0F60180819181800F911F91838083BB
:101C900085E011C00E94BE0E882349F00CC08991D6
:101CA0008093F1000894E108F1080F5F1F4FE114E1
:101CB000F104D9F68B2DDF91CF911F910F91FF90F9
:101CC000EF90DF90CF90BF900895382F282F2EC02F
:101CD000822F8F708093E900231721F4762F942FA1
:101CE00050E006C07091EC009091ED005091F00032
:101CF00091FF1BC08091EB008E7F8093EB00809161
:101D0000ED008D7F8093ED008091EB0081608093EA
:101D1000EB007093EC009093ED005093F0008091F5
:101D2000EE0087FD02C080E008952F5F273080F22B
:101D30003F703093E90081E008958091BC018823D1
:101D40009CF404C08091BB018823B9F08091E80025
:101D500082FFF8CF8091E8008B778093E8000895A8
:101D60008091BB01882349F08091E80080FFF8CF83
:101D70008091E8008E778093E80008954091E40018
:101D80005091E50024E68091EC0080FF24C0809112
:101D9000E80080FD1EC08091BB01882311F482E021
:101DA0000895853011F483E008958091EB0085FF5C
:101DB00002C081E008958091E4009091E5008417CD
:101DC000950709F3222311F484E008952150AC0112
:101DD000DACF80E008958091E80082FFDCCFF9CF70
:101DE0000E94630F0E946B0FE0EEF0E08081816043
:101DF0008083A8EDB0E08C918F778C9319BCE7EDD0
:101E0000F0E080818E7F80838C918F7E8C93109206
:101E1000BA010895EF92FF920F931F930E94630FF0
:101E20000E946B0F08ED10E0F80180818F778083AE
:101E300080818068808380818F7D808319BC10922F
:101E4000BB011092B7011092B9011092B80180EE57
:101E5000E82EF12CF70180818B7F8083F80180814F
:101E60008160808380E060E042E00E94650EE1EEE8
:101E7000F0E080818E7F8083E2EEF0E080818160FF
:101E80008083808188608083F70180818E7F80835A
:101E9000F8018081806180831F910F91FF90EF9006
:101EA0000895E8EDF0E080818F7E8083E7EDF0E03B
:101EB00080818160808384E082BF81E08093BA0169
:101EC0000E940A0F0895E8EDF0E080818E7F808304
:101ED0001092E20008951092DA001092E100089545
:101EE0001F920F920FB60F9211241F932F933F93BF
:101EF0004F935F936F937F938F939F93AF93BF9312
:101F0000EF93FF931091E9008091EC001092E900AB
:101F10008091F000877F8093F00078940E947E107B
:101F20001092E9008091F00088608093F0001F70AB
:101F30001093E900FF91EF91BF91AF919F918F9125
:101F40007F916F915F914F913F912F911F910F90D2
:101F50000FBE0F901F9018951F920F920FB60F9201
:101F600011242F933F934F935F936F937F938F939E
:101F70009F93AF93BF93EF93FF938091E10082FF14
:101F80000BC08091E20082FF07C08091E1008B7F4F
:101F90008093E1000E94C2098091DA0080FF1FC097
:101FA0008091D80080FF1BC08091DA008E7F8093E3
:101FB000DA008091D90080FF0DC080E189BD82E107
:101FC00089BD09B400FEFDCF81E08093BB010E9472
:101FD000680B05C019BC1092BB010E94610B809177
:101FE000E10080FF19C08091E20080FF15C0809160
:101FF000E2008E7F8093E2008091E2008061809316
:10200000E2008091D80080628093D80019BC85E0FE
:102010008093BB010E94570B8091E10084FF30C088
:102020008091E20084FF2CC080E189BD82E189BDFE
:1020300009B400FEFDCF8091D8008F7D8093D80039
:102040008091E1008F7E8093E1008091E2008F7E9D
:102050008093E2008091E20081608093E2008091B1
:10206000B701882311F084E007C08091E30087FD69
:1020700002C081E001C083E08093BB010E94A10CFB
:102080008091E10083FF29C08091E20083FF25C099
:102090008091E100877F8093E10082E08093BB0123
:1020A0001092B7018091E1008E7F8093E1008091D2
:1020B000E2008E7F8093E2008091E2008061809355
:1020C000E20080E060E042E00E94650E8091F00056
:1020D00088608093F0000E945C0BFF91EF91BF91AC
:1020E000AF919F918F917F916F915F914F913F91B0
:1020F0002F910F900FBE0F901F9018951F93DF9395
:10210000CF93CDB7DEB7AC970FB6F894DEBF0FBE56
:10211000CDBFECEBF1E08091F100819321E0E43C54
:10212000F207C9F70E94C90B8091E80083FF3EC106
:102130008091BC013091BD01353009F487C0363043
:1021400040F43130C9F1313070F0333009F02EC134
:1021500033C0383009F4F9C0393009F409C13630D8
:1021600009F024C197C0803821F0823809F01EC1DF
:1021700008C09091B8018091B901882399F09260CC
:1021800011C08091C0018F708093E9008091EB00B5
:1021900090E025E0969587952A95E1F7982F917024
:1021A0001092E9008091E800877F8093E800909387
:1021B000F1001092F100D4C0882319F0823009F0A8
:1021C000F5C090E08F719070009721F0029709F0B0
:1021D000EDC00CC08091BE01813009F0E7C01092C3
:1021E000B901333069F58093B9012AC08091BE01ED
:1021F000882331F52091C0012F7009F4D7C02093B6
:10220000E9008091EB0080FF1BC0333021F4809106
:10221000EB00806213C08091EB0080618093EB0043
:1022200081E090E002C0880F991F2A95E2F7809321
:10223000EA001092EA008091EB0088608093EB0046
:102240001092E9008091E800877F8DC0882309F013
:10225000ADC01091BE011F778091E3008078812B83
:102260008093E3008091E800877F8093E8000E94DC
:102270009D0E8091E80080FFFCCF8091E300806894
:102280008093E300112311F482E001C083E0809386
:10229000BB018CC08058823008F088C08091BE019C
:1022A0009091BF0123E08C3D920709F034C083E098
:1022B0008C838AE28B837FB7F894DE0115966EE0FB
:1022C00040E050E011E2E62FF0E0109357008491D7
:1022D00040FF03C082958F706F5F8F70282F30E0B2
:1022E0008A3018F0C901C79602C0C901C0968D9303
:1022F0009D934F5F5F4F4431510529F77FBF809118
:10230000E800877F8093E800CE0103966AE270E0E0
:102310000E943D0D14C06091C001AE014F5F5F4F40
:102320000E94A80CBC01009709F440C08091E8000D
:10233000877F8093E80089819A810E94A70D809110
:10234000E8008B778093E80031C0803879F5809180
:10235000E800877F8093E8008091B7018093F100C7
:102360008091E8008E778093E8000E949D0E1EC049
:102370008823E1F49091BE019230C0F48091E8008E
:10238000877F8093E8009093B7010E949D0E809113
:10239000B701882331F48091E30087FD02C081E01A
:1023A00001C084E08093BB010E94870C8091E8000B
:1023B00083FF0AC08091E800877F8093E8008091C6
:1023C000EB0080628093EB00AC960FB6F894DEBF12
:1023D0000FBECDBFCF91DF911F910895909346011D
:1023E000809345010895E0914501F09146013097B1
:1023F00011F480E008950190F081E02D0995089591
:10240000E0914501F0914601309721F00480F5817B
:10241000E02D099508959C0180914301909144011C
:102420002817390779F03093440120934301E09154
:102430004501F0914601309729F00680F781E02DA3
:10244000C901099508959C01809141019091420133
:102450002817390779F03093420120934101E09128
:102460004501F0914601309729F00084F185E02D77
:10247000C90109950895EF92FF920F931F93CF938F
:10248000DF93182F092FE0914501F0914601309715
:10249000D9F10280F381E02D09958091A50182FF99
:1024A00033C080FF04C086E495E00E94F906812FC6
:1024B000902F9C01E90110E080E4E82E85E0F82EE1
:1024C0008091A50180FF14C000D000D0EDB7FEB709
:1024D0003196ADB7BEB71296FC92EE9211978881F5
:1024E000828313820E9492070F900F900F900F909B
:1024F0001F5F2196103121F78091A50180FF04C054
:102500008EE395E00E94F906DF91CF911F910F9124
:10251000FF90EF90089508950E948B1208951F93E5
:10252000182F8091A50182FF27C080FF04C08FE58E
:1025300095E00E94F9068091A50180FF15C000D0AA
:1025400000D0EDB7FEB731968AE595E0ADB7BEB7DE
:1025500012969C938E931197128313820E94920776
:102560000F900F900F900F908091A50180FF04C0F5
:1025700088E595E00E94F906812F0E94BB091F9112
:1025800008952F923F925F926F927F928F929F92C7
:10259000AF92BF92CF92DF92EF92FF920F931F9371
:1025A000DF93CF93CDB7DEB72A970FB6F894DEBF8F
:1025B0000FBECDBF0E94F30728E4822E21E0922EA9
:1025C000AA24BB2491E0292E312C5A2C8A2D0E945A
:1025D000B6076C01F401E080F180E826F926E114E9
:1025E000F104E1F18091A50181FF02C00E946C0914
:1025F00000E010E03101002E02C0660C771C0A9446
:10260000E2F7C3018E219F21892B19F10E94E81F57
:102610009C0109835A821B82C620D720CD2811F045
:1026200081E08B83C9018160782F9D838C834981F0
:102630005A816B818D810E944D17F501EE0FFF1FAE
:10264000E85BFE4F80819181862597259183808369
:1026500021C00F5F1F4F0E30110561F60894A11CB9
:10266000B11C82E090E0880E991E95E0A916B10495
:1026700009F0ABCF0E94E81F2FEF2E832F8318861F
:102680008160782F9A8789874FEF5FEF60E08A85B6
:102690000E944D170E949224109147010E94F3114D
:1026A000181731F00E94F311809347010E948F1296
:1026B0002A960FB6F894DEBF0FBECDBFCF91DF9143
:1026C0001F910F91FF90EF90DF90CF90BF90AF9050
:1026D0009F908F907F906F905F903F902F90089584
:1026E0000E94DF1F0E94C6070E94AD200895DF935D
:1026F000CF9300D000D00F92CDB7DEB70F900F90E0
:102700000F900F900F90CF91DF910895DF93CF93AB
:1027100000D000D000D0CDB7DEB726960FB6F89423
:10272000DEBF0FBECDBFCF91DF9108950E94C41BC5
:10273000482F892F82958F70282F30E02C3031055B
:102740004CF42A3031056CF42250304022303105EF
:10275000C0F407C02C30310551F02F30310589F419
:1027600006C0403E10F0403F61F481E008959F7044
:10277000892F90E023E0969587952A95E1F781705F
:10278000089580E008950E94291D0E94FB1C0E946C
:10279000E71D0E94B6230E94C22380E090E00E94C1
:1027A0000B1280E090E00E94231208950E94191DF0
:1027B0000E94C3130895882321F00E94121D0E94D5
:1027C000E71D0895882321F00E940C1D0E94E71D3B
:1027D0000895282F882309F44EC0823859F40E94A6
:1027E000F31181FF48C089E30E948F1D0E94E71DFD
:1027F00089E30CC0833869F40E94F31180FF3BC069
:1028000083E50E948F1D0E94E71D83E50E94411D04
:102810001FC0843859F40E94F31182FF2CC087E452
:102820000E948F1D0E94E71D87E4F0CF8450813AFB
:1028300010F4822FEBCF822F805E883060F42770F7
:1028400081E090E001C0880F2A95EAF70E94121DEE
:102850000E94E71D0895822F855A833028F480E076
:1028600090E00E940B120895285A233120F480E052
:1028700090E00E94231208951F93182F882309F4D3
:10288000D0C0823859F40E94F31181FDCAC089E397
:102890000E948F1D0E94E71D89E30CC0833879F4E4
:1028A0000E94F31180FDBDC083E50E948F1D0E9430
:1028B000E71D83E50E94411D0E94E71DB2C08438D8
:1028C00059F40E94F31182FDACC087E40E948F1D71
:1028D0000E94E71D87E4EECF8450813A50F4812FA7
:1028E0000E94822A882309F09CC0812F0E948F1D9C
:1028F000E3CF812F805E883050F4177081E090E044
:1029000001C0880F1A95EAF70E940C1DD5CF812FC0
:10291000855A8330A0F4153A19F481E890E00CC090
:10292000163A19F482E890E007C0173A19F080E0EF
:1029300090E002C083E890E00E940B1272C0812FE9
:10294000885A833108F06DC0183A19F482EE90E08D
:1029500066C0193A19F489EE90E061C01A3A19F488
:102960008AEE90E05CC01B3A19F485EB90E057C00A
:102970001C3A19F486EB90E052C01B3B19F483EB30
:1029800090E04DC01C3B19F484EB90E048C01D3A28
:1029900019F487EB90E043C0103B19F48CEC90E005
:1029A0003EC01E3A19F48DEC90E039C01F3A19F47C
:1029B00083E891E034C0113B19F48AE891E02FC01C
:1029C000123B19F482E991E02AC0133B19F484E91F
:1029D00091E025C0143B19F481E292E020C0153B40
:1029E00019F483E292E01BC0163B19F484E292E0F2
:1029F00016C0173B19F485E292E011C0183B19F498
:102A000086E292E00CC0193B19F487E292E007C01D
:102A10001A3B19F080E090E002C08AE292E00E9446
:102A200023121F910895AF92BF92CF92DF92EF923F
:102A3000FF920F931F93DF93CF93CDB7DEB72A9703
:102A40000FB6F894DEBF0FBECDBF5C01DE0111965C
:102A5000FC0185E001900D928150E1F70B81F501B9
:102A6000F580F2944FE0F422DE011696FE013196D5
:102A700085E001900D928150E1F73E812F8189859B
:102A80009A85892B09F4F8C12F3F09F0C8C13F3F4F
:102A900009F0C5C1F1C18D2D8F70222311F4182FBB
:102AA00003C0182F1295107F002349F0112309F459
:102AB00090C1812F0E941C1D0E94E71D8AC18C2D90
:102AC0000E94E913112309F4D7C1812F0E94221D0E
:102AD0000E94E71DD1C18D2D8F70203211F4182F67
:102AE00003C0182F1295107FCC2021F0F1E0CF16F3
:102AF00029F514C0002349F0FF2051F121E0F2161E
:102B000039F5812F0E942C1DB7C1FF2021F081E0F3
:102B1000F81609F4B1C10E942F1D2FC1002349F0FE
:102B2000E5E0EF1508F4A8C10E94091D812381F09A
:102B300024C1F4E0FF1508F49FC11FC1002361F018
:102B4000FF2031F0F501858180FF43C18F708583BF
:102B5000812F0E94E21390C1FF2009F40EC144C1ED
:102B60008D2D86958695837090E0009721F00197D2
:102B700009F082C10AC0002319F0C601937002C097
:102B800080E090E00E940B1277C1002319F0C6018B
:102B9000937002C080E090E00E9423126DC1002378
:102BA00021F08C2D0E94C42203C08C2D0E942E2364
:102BB0000E94C22361C18D2D837009F05EC0002385
:102BC00009F05AC12C2D229526952770220F220F2D
:102BD0008C2D8F70E82EFF2400E010E0022E04C040
:102BE000EE0CFF1C001F111F0A94D2F7C4FC05C095
:102BF00060E070E080E090E00FC06FE070E080E0A7
:102C000090E004C0660F771F881F991F2A95D2F79E
:102C10006095709580959095D694D694F3E0DF22D8
:102C20004D2D50E041305105A9F0423051051CF4C2
:102C3000452B49F021C14230510589F043305105FF
:102C400009F01AC113C06E297F29802B912B0E9495
:102C5000D61C12C16E297F29802B912B0BC06E29A7
:102C60007F29802B912B0E94C51C06C10E94D61C77
:102C7000C801B7010E94E71CFFC090E0002311F4D7
:102C800096958795817009F4F7C02C2D229526958D
:102C90002770220F220F8C2D8F70E82EFF2400E06A
:102CA00010E0022E04C0EE0CFF1C001F111F0A943E
:102CB000D2F7C4FC05C060E070E080E090E00FC097
:102CC0006FE070E080E090E004C0660F771F881F1F
:102CD000991F2A95D2F76095709580959095D69416
:102CE000D69423E0D2224D2D50E041305105A9F079
:102CF000423051051CF4452B49F0BEC0423051050D
:102D000089F04330510509F0B7C013C06E297F29FF
:102D1000802B912B0E94291CAFC06E297F29802B0C
:102D2000912B0BC06E297F29802B912B0E94181CA0
:102D3000A3C00E94291CC801B7010E943A1C9CC074
:102D400080EFC816F1F08C1520F0E0EECE16E8F119
:102D500009C0F2EFCF1651F1CF1618F123EFC216CA
:102D6000A1F529C01C2D1F708D2D8F71002319F026
:102D70000E94871CEDCE0E94671C812F0E94DB13EE
:102D80007BC0002329F084E08F1508F475C004C0CF
:102D9000E5E0EF1508F470C08D2D8F710E944B1C7B
:102DA0006BC08D2D8F71002329F119C08D2D8F716E
:102DB0000023A9F01FC0002329F08D2D8F710E94E0
:102DC000A31C5AC00E94B31C57C0002359F0FF2017
:102DD00021F08C2D0E943C144FC08D2D8F710E94CC
:102DE000871C4AC0FF2021F08C2D0E94E91344C0AB
:102DF0008D2D8F710E94671C3FC0FFE0DF22C5014F
:102E00006C2D4D2D0E940F1E0E94491B35C02FE0D6
:102E1000D222C5016C2D4D2D0E94121E2DC089811C
:102E20009A810E94C41B6C010E94C31B0E94C21B9A
:102E30008D2D82958F7090E08530910509F4AFCE8D
:102E40008630910554F4843091050CF089CE2D2DF7
:102E5000207F02970CF03FCE1ECE8C3091053CF4C3
:102E60008A3091050CF06CCF089731F4A4CE8C30E9
:102E7000910519F20F9759F22A960FB6F894DEBF12
:102E80000FBECDBFCF91DF911F910F91FF90EF90BB
:102E9000DF90CF90BF90AF900895DF93CF93CDB7E1
:102EA000DEB72B970FB6F894DEBF0FBECDBF342F21
:102EB0004F83252F588769877A878B87472F582F0D
:102EC000FE01319686E0DF011D928A95E9F76B835A
:102ED00039832A834C835D83432F522F8D819E81BA
:102EE0000E948A1A2B960FB6F894DEBF0FBECDBF94
:102EF000CF91DF9108950F931F930091590115C051
:102F000010E0F801EE0FFF1FE00FF11FEE0FFF1FA3
:102F1000E65AFE4F4081518162817381848195819F
:102F20000E9486130F5F1F4F07708091580108178A
:102F300039F71F910F91089540915201509153011B
:102F40006091540170915501809156019091570103
:102F50000E94861308950F931F93CF93DF93809160
:102F6000570182958F7009F06DC0809154018823BC
:102F700009F468C0609159010091580140915501D0
:102F8000509156011091530170915201EA01C09580
:102F9000D09555C04115510509F44FC01F3F49F464
:102FA00080E090E07F3F11F481E090E0882309F019
:102FB00044C0262F30E0F901EE0FFF1FE20FF31F90
:102FC000DF01AA0FBB1FA65ABE4F11968C91119715
:102FD000181799F58C91781781F5EE0FFF1FE45AB9
:102FE000FE4F8081882349F513968D919C9114970B
:102FF0008417950718F0841B950B02C08C0F9D1F3A
:10300000883C9105D0F4809157018F708061809346
:103010005701F901EE0FFF1FE20FF31FEE0FFF1F25
:10302000E15AFE4F80818F708061808382E591E05C
:103030000E9413150E947B1705C06F5F67706017B1
:1030400009F0A8CFDF91CF911F910F910895DF92E2
:10305000EF92FF920F931F93DF93CF93CDB7DEB71D
:103060006B970FB6F894DEBF0FBECDBF8C01DC01AD
:103070001296DC9012974C9111965C9111971396D1
:10308000ED90FC901497209155013091560160917C
:103090005301709152012115310509F4DBC16F3FD5
:1030A00009F003C27F3F09F000C2D4C1E216F30663
:1030B00040F0C701821B930B883C910508F0EEC0DD
:1030C00008C0209530952E0D3F1D283C310508F095
:1030D000E5C080915701807F09F095C06F3F09F0EE
:1030E000EAC17F3F09F0E7C115C0741799F4DD20EC
:1030F00089F4809157018F708061809357010E94FD
:103100009C1782E591E00E94131580915701F80108
:103110008583BCC1FD82EC825A834983DB82DE0158
:103120001696FE01319685E001900D928150E1F7EF
:103130006885DE011B96FE01369685E001900D92B2
:103140008150E1F72C853B858E859F85892B09F47D
:1031500051C02F3F09F0B3C13F3F09F0B0C14AC091
:10316000FD82EC825A834983DB82DE011B96FE01DD
:10317000319685E001900D928150E1F7FC847B85CA
:103180006D8580915901909158011FC0282F30E022
:10319000F901EE0FFF1FE20FF31FDF01AA0FBB1FA4
:1031A000A65ABE4F11968C911197F81651F48C9136
:1031B000781739F4EE0FFF1FE45AFE4F808168172D
:1031C000C9F42F5F3F4F822F87708917F9F68DC1A1
:1031D0009F7059F0442349F459C19F7031F0D801D0
:1031E00015968C91807F09F451C1405E483008F4F7
:1031F0004DC148C1DD2009F449C18091570181606A
:103200008093570143C16F3F09F05DC17F3F09F0D3
:103210005AC114C0741791F4DD2081F480915701D4
:10322000F8018583C8010E941315A2E5B1E0F801F9
:1032300086E001900D928150E1F720C15A834983C5
:1032400089819A810E949613882309F41BC1DD208D
:1032500009F418C130915701832F82958F7090E047
:1032600002979CF09091530120915201FE017096BB
:1032700086E0DF011D928A95E9F7998B288BFC8AFD
:10328000EB8A3D8BCF010E941315A2E5B1E0F80156
:1032900086E001900D928150E1F7EEC080915701D8
:1032A000807FA9F47E2DFD82EC825A834983DB82E4
:1032B0006D2D8D810E94771302E511E0C8010E94F7
:1032C000131586E0F80111928A95E9F7C0C06F3FA7
:1032D00009F0FDC07F3F09F0FAC014C0741791F4E3
:1032E000DD2081F480915701D80115968C93C80197
:1032F0000E941315E2E5F1E086E0DF011D928A9558
:10330000E9F7BEC05A83498389819A810E94961346
:10331000882309F4B7C0DD2009F4B4C03091570107
:10332000832F82958F7090E002979CF090915301CB
:1033300020915201FE01769686E0DF011D928A956A
:10334000E9F79F8B2E8BFA8EE98E3B8FCF010E947F
:103350001315A2E5B1E0F80186E001900D928150CD
:10336000E1F78AC06F3F09F0B6C07F3F09F0B3C0F4
:1033700071C0E216F30640F0C701821B930B883C34
:10338000910508F053C008C0209530952E0D3F1DC3
:10339000283C310508F04AC0DD2009F473C06F3FB6
:1033A00009F09FC07F3F09F09CC029C0741739F510
:1033B0009091570190FD1AC0892F82958F70B1F0BE
:1033C000F80195838F3031F08F5F8295807F9F70F9
:1033D000982B9583C8010E941315A2E5B1E0F8016E
:1033E00086E001900D928150E1F748C0A2E5B1E07E
:1033F000F80186E001900D928150E1F741C05A83B7
:10340000498389819A810E949613882349F0A2E515
:10341000B1E0F80186E001900D928150E1F72CC0F7
:10342000809157018160809357012CC07E2DFD82D1
:10343000EC825A834983DB826D2D8D810E94771344
:10344000E2E5F1E086E0DF011D928A95E9F70E944E
:103450009C171CC0DD20B1F05A83498389819A8171
:103460000E949613882371F0A2E5B1E0F80186E08E
:1034700001900D928150E1F70E94AB170E949C17BA
:1034800081E005C0C8010E941315FACF80E06B9659
:103490000FB6F894DEBF0FBECDBFCF91DF911F9165
:1034A0000F91FF90EF90DF90089580915401882351
:1034B00009F458CFFBCD651709F02CCE16CE61303C
:1034C00009F498CE4DCE651709F0B8CEA3CE651796
:1034D00009F018CF03CF80915401882309F0BACFA7
:1034E00048CF651709F08BCF61CF5A834983898113
:1034F0009A810E94C41B482F892F82958F70282F94
:1035000030E0223031050CF463CE243031050CF06C
:10351000B9CF63CE0F931F93DF93CF93CDB7DEB7B1
:103520002C970FB6F894DEBF0FBECDBF4F835887E0
:1035300069877A878B879C878E01095F1F4FC80137
:103540000E9427188823D9F028853F818A859B858A
:10355000892B09F46BC02F3F49F480E090E03F3F96
:1035600011F481E090E0882309F060C04F81588514
:1035700069857A858B859C850E94861357C0DE01FC
:103580001196F80186E001900D928150E1F7F981E2
:10359000EA814C815D814115510509F447C0EF3F37
:1035A00009F04CC0FF3F09F049C040C0F983EA83ED
:1035B0005D834C83F901EE0FFF1FE20FF31FEE0F47
:1035C000FF1FE65AFE4FDE01119686E00D90019234
:1035D0008150E1F7609358010E947B1727C0919FAB
:1035E000C0011124865A9E4F0E942718882309F48F
:1035F00045C08091590190E0FC01EE0FFF1FE80FDC
:10360000F91FEE0FFF1FE65AFE4F40815181628184
:103610007381848195810E9486138091590190E085
:103620000196877090708093590101C016E09091C7
:10363000590180915801981791F620C08091580146
:10364000282F30E02F5F3F4FB90167707070215015
:1036500030408091590190E06817790709F0A6CFB2
:103660000E94D6131092580110925901E2E5F1E040
:1036700086E0DF011D928A95E9F7D8CF2C960FB628
:10368000F894DEBF0FBECDBFCF91DF911F910F9198
:103690000895CF92DF92EF92FF921F93CF93DF9323
:1036A000EC01009709F466C010E090EAC92E9FE093
:1036B000D92E81E0E82EF12CFE01219694919437C9
:1036C00048F4943008F044C0913079F0923009F019
:1036D00051C01BC0953709F437C0953750F1892F79
:1036E0008458803708F046C037C0FE012196949177
:1036F000892F805E883060F597708E2D01C0880F0D
:103700009A95EAF70E941C1D0FC0FE012196949124
:10371000892F805E883058F497708E2D01C0880FF5
:103720009A95EAF70E94221D0E94E71D19C0892F71
:1037300015C0FE01249104C0C6010197F1F7215084
:103740002223D1F721960CC0FE012196149108C0C6
:10375000892F0E943C1404C0892F8F770E94E9139F
:10376000212F04C0C6010197F1F72150222309F44B
:10377000A3CFF8CFDF91CF911F91FF90EF90DF9013
:10378000CF90089508950895CF92DF92EF92FF921F
:103790000F931F93CF93DF936C01E0908A01F09019
:1037A0008B0100918C0110918D0180918E0190917F
:1037B0008F01A0919001B0919101E82AF92A0A2B7A
:1037C0001B2BCFE1D0E0D801C7010C2E04C0B69569
:1037D000A795979587950A94D2F781709070892B59
:1037E00041F08C2FB6010E94C11E9C0181309105D1
:1037F00051F421978FEFCF3FD80729F780E0B6012A
:103800000E94C11E9C01822FDF91CF911F910F91C9
:10381000FF90EF90DF90CF90089560938E017093AA
:103820008F0180939001909391010E94C31308959A
:103830009B01AC0160918E0170918F01809190018C
:103840009091910162277327842795270E940D1C70
:1038500008959B01AC0160918E0170918F01809160
:1038600090019091910162237323842395230E94F8
:103870000D1C08959B01AC0160918E0170918F0128
:103880008091900190919101622B732B842B952B49
:103890000E940D1C089521E030E040E050E004C09B
:1038A000220F331F441F551F8A95D2F780918E0136
:1038B00090918F01A0919001B09191012827392713
:1038C0004A275B27CA01B9010E940D1C089521E017
:1038D00030E040E050E004C0220F331F441F551F6A
:1038E0008A95D2F7209530954095509580918E011C
:1038F00090918F01A0919001B091910128233923DB
:103900004A235B23CA01B9010E940D1C089521E0DE
:1039100030E040E050E004C0220F331F441F551F29
:103920008A95D2F780918E0190918F01A09190019C
:10393000B0919101282B392B4A2B5B2BCA01B9017D
:103940000E940D1C089521E030E040E050E004C0EA
:10395000220F331F441F551F8A95D2F7CA01B901A0
:103960000E940D1C089560E070E080E090E00E94ED
:103970000D1C089560938A0170938B0180938C01D4
:1039800090938D010E94C31308959B01AC01609137
:103990008A0170918B0180918C0190918D01622739
:1039A0007327842795270E94BA1C08959B01AC01B8
:1039B00060918A0170918B0180918C0190918D01B1
:1039C00062237323842395230E94BA1C08959B01CC
:1039D000AC0160918A0170918B0180918C01909172
:1039E0008D01622B732B842B952B0E94BA1C08959A
:1039F0000E94BA1C089581E090E0E0910D01F091E1
:103A00000E01E80FF91F1082019680319105A9F788
:103A100008958091A20108959091A201982B90930E
:103A2000A201089580959091A20198239093A201FC
:103A300008951092A20108959091A401982B90935B
:103A4000A401089580959091A40198239093A401D6
:103A500008951092A40108958093A30108951092EF
:103A6000A3010895E0910D01F0910E0120E091E095
:103A7000818181112F5F9F5F31969031C9F7822F2D
:103A80000895482F809101018823B9F180910C019C
:103A9000882399F1842F8695869586958F3098F4A2
:103AA000E0910D01F0910E01E80FF11D477081E0EA
:103AB00090E002C0880F991F4A95E2F78095218116
:103AC0008223818308958091A50180FF27C000D0C3
:103AD00000D0EDB7FEB7319682E795E0ADB7BEB73F
:103AE00012969C938E931197428313820E949207A1
:103AF0000F900F900F900F90089520E030E0E0912C
:103B00000D01F0910E01E20FF31F8281841709F479
:103B100012822F5F3F4F2E30310589F70895382FDD
:103B2000809101018823B1F180910C01882391F1EA
:103B3000832F8695869586958F3090F4E0910D01C0
:103B4000F0910E01E80FF11D377081E090E002C0A6
:103B5000880F991F3A95E2F72181282B2183089538
:103B60008091A50180FF32C000D000D0EDB7FEB734
:103B7000319680E995E0ADB7BEB712969C938E93CF
:103B80001197328313820E9492070F900F900F902B
:103B90000F900895A0910D01B0910E01FD0120E05C
:103BA0008FEF9281931791F08F3F19F4992309F4C5
:103BB000822F2F5F31962E30A1F78F3F39F0992752
:103BC00087FD9095A80FB91F12963C930895E09138
:103BD0000D01F0910E018091A2018083E0910D0111
:103BE000F0910E0180819091A401892B80839091A6
:103BF000A301992369F0E0910D01F0910E018081FC
:103C0000892B80830E94321D882311F00E942F1D72
:103C100080910D0190910E010E943B12089580E069
:103C200090E008950895282F8D3B50F4883A28F5A8
:103C3000853AB0F4843080F4813009F09EC08CC0A5
:103C4000883E30F4803E40F48F3B09F096C087C038
:103C5000803F08F492C07DC0822F90E09C018FC00D
:103C6000853A19F421E830E48AC0863A19F023E84D
:103C700030E485C022E830E482C0883A19F422EEAC
:103C800034E47DC0893A19F429EE34E478C08A3AE4
:103C900019F42AEE34E473C08B3A19F425EB34E4BA
:103CA0006EC08C3A19F426EB34E469C08B3B19F4EE
:103CB00023EB34E464C08C3B19F424EB34E45FC0A0
:103CC0008D3A19F427EB34E45AC0803B19F42CECFC
:103CD00034E455C08E3A19F42DEC34E450C08F3AD8
:103CE00019F423E835E44BC0813B19F42AE835E4A4
:103CF00046C0823B19F422E935E441C0833B19F404
:103D000024E935E43CC0843B19F421E236E437C0B1
:103D1000853B19F423E236E432C0863B19F424E2F1
:103D200036E42DC0873B19F425E236E428C0883BF1
:103D300019F426E236E423C0893B19F427E236E47D
:103D40001EC08A3B19F020E034E419C02AE236E4B0
:103D500016C030E0306513C021E030E010C00E9492
:103D6000D61384EF91E020E931E0F9013197F1F7C2
:103D70000197D9F70E94452002C020E030E0C90138
:103D800008950E949B07803EB0F4803C20F581336B
:103D900009F460C0823338F4893209F453C08A329E
:103DA00009F067C05CC08933C9F08238B9F0853347
:103DB00009F05FC042C0833E29F1843E30F4803E6A
:103DC000A1F0823E09F055C018C0863E29F1873E19
:103DD00009F04FC026C00E94AC0708959091B6012B
:103DE00090FD09C091FD07C041C08091B60180FFE0
:103DF00002C089E33BC080EE39C08091B60182FDEC
:103E000007C004C08091B60182FF02C082EE2EC0BE
:103E100084FD0FC083EE2AC08091B60183FD07C0E8
:103E200004C08091B60183FF02C086EE1FC084FFEC
:103E300002C080E01BC087EE19C08091B60185FFEB
:103E400005C006C08091B60185FF02C085E30EC0A3
:103E500089E20CC08091B60186FF05C006C0809142
:103E6000B60186FF02C081E301C08AE20E94131EF0
:103E700008950E94131E08959093170180931601D0
:103E80000895282F22952F708295807F282B30E06F
:103E9000C9018C7C9070959587959595879523732E
:103EA0003070220F331F220F331F822B282F30E058
:103EB000C9018A7A90709595879525753070220F83
:103EC000331F822B08950F931F93192F0E94411FB8
:103ED000082F812F0E94411F502F40E0282F30E0F3
:103EE000242B352BC9011F910F9108958091BB019F
:103EF000843009F11092A60120E488E190E00FB629
:103F0000F894A895809360000FBE2093600083B75B
:103F1000817F846083BF83B7816083BF78948895F5
:103F200083B78E7F83BF88E10FB6F89480936000DB
:103F3000109260000FBE0895089508951F920F9289
:103F40000FB60F9211248F939F93AF93BF938091DD
:103F5000A601882399F48091A7019091A801A091CE
:103F6000A901B091AA014196A11DB11D8093A7019D
:103F70009093A801A093A901B093AA01BF91AF911A
:103F80009F918F910F900FBE0F901F9018950E94D8
:103F9000D61308951F930E949C1F0E94F3070E944E
:103FA0009D1F10E0812F0E94B607892B11F081E040
:103FB00004C01F5F1530B1F780E01F91089582E0C3
:103FC00084BD93E095BD9AEF97BD80936E000895F0
:103FD0008FB7F8942091A7013091A8014091A901D1
:103FE0005091AA018FBFC9010895EF92FF920F93DC
:103FF0001F93BC018FB7F894E090A701F090A8013F
:104000000091A9011091AA018FBFA80197014070EA
:104010005070CB01A0E0B0E0281739074A075B07D2
:1040200020F09701261B370B05C09B01209530958A
:104030002E0D3F1DC9011F910F91FF90EF90089524
:104040001F920F920FB60F9211248F939F93AF93ED
:10405000BF938091A7019091A801A091A901B0916F
:10406000AA010196A11DB11D8093A7019093A801FB
:10407000A093A901B093AA01BF91AF919F918F9195
:104080000F900FBE0F901F9018950E94F00EF8949D
:1040900080E29EE420E931E0F9013197F1F70197E0
:1040A000D9F787E090EBA7E0B0EB8093C401909341
:1040B000C501A093C601B093C7012CE088E190E050
:1040C0000FB6F894A895809360000FBE209360000F
:1040D000FFCFCF92DF92EF92FF920F931F93CF9378
:1040E000DF93082F10E081E0C82ED12C812F0E9491
:1040F000B6077C01C0E0D0E0C6010C2E02C0880FDC
:10410000991F0A94E2F78E219F21892B49F080E0C4
:104110006C2F712F0E949B07081711F481E008C0D3
:104120002196CE30D10541F71F5F1530F9F680E0BA
:10413000DF91CF911F910F91FF90EF90DF90CF9083
:1041400008951F93182F8CE20E946920882319F08C
:10415000812F0E9469201F9108951F93CF93DF93B1
:104160000E942322882311F40E942E2285EB95E0E1
:104170000E94F90614E6C0E4DCE905C00E94F307DA
:10418000CE010197F1F71150C8F78EEA95E00E9431
:10419000F90689E20E94A120882309F02FC18AE252
:1041A0000E94A120882311F00E942E2285E00E9407
:1041B000A120882311F00E9445200E941E22809396
:1041C000A50187E00E94A1208823B9F18BE10E941C
:1041D000A120882349F09091A501892F869580958B
:1041E0008170880F9D7F26C08EE00E94A1208823C9
:1041F00059F09091A501892F8695869580958170BB
:10420000880F880F9B7F16C080E10E94A1209091AB
:10421000A501882359F0892F8695869586958095E6
:104220008170880F880F880F977F04C0892F809531
:1042300081709E7F982B9093A5018091A5010E948B
:104240000E220E9414228093B60180EE0E94A120CB
:10425000882349F08091B601982F909591708E7FB8
:10426000892B8093B60189E30E94A120882359F00D
:104270009091B601892F869580958170880F9D7FDA
:10428000982B9093B60182EE0E94A120882369F0BA
:104290009091B601892F8695869580958170880FBB
:1042A000880F9B7F982B9093B60186EE0E94A120E9
:1042B000882379F09091B601892F86958695869509
:1042C00080958170880F880F880F977F982B909327
:1042D000B60183EE0E94A120882369F09091B60177
:1042E000892F82958F70809581708295807F9F7EC7
:1042F000982B9093B60185E30E94A120882379F042
:104300009091B601892F82958695877080958170EE
:104310008295880F807E9F7D982B9093B60181E3D4
:104320000E94A120882389F09091B601892F82955F
:10433000869586958370809581708295880F880F09
:10434000807C9F7B982B9093B60181E10E94A120F5
:10435000882379F08091B601982F991F9927991F8A
:1043600021E092279795992797958F77892B8093AE
:10437000B6018091B6010E9402228091B601881F89
:104380008827881F80930C0187E20E94A120182FA4
:104390008EE10E94A120811112608FE10E94A12074
:1043A0008111146080E20E94A1208111186081E2D5
:1043B0000E94A1208111106182E20E94A12081113E
:1043C000106283E20E94A1208111106484E20E94A5
:1043D000A12081111068112341F0812F0E94082231
:1043E000612F70E080E090E007C00E94192290E009
:1043F000A0E0B0E0BC01CD010E94F81CDF91CF919C
:104400001F910895682F84E090E00E94B32D0895D5
:10441000682F83E090E00E94B32D0895682F82E01A
:1044200090E00E94B32D089584E090E00E94A52DB5
:10443000089583E090E00E94A52D089582E090E029
:104440000E94A52D089580E090E00E94AD2D20E00F
:104450008D5E9E4F09F421E0822F089580E090E068
:104460006DEE7EEF0E94C12D82E090E060E00E9440
:10447000B32D83E090E060E00E94B32D84E090E0F3
:1044800060E00E94B32D85E090E060E00E94B32DD3
:1044900008958091B10180FF0BC09091110185E0DA
:1044A000989FC0011124959587959595879530C063
:1044B00081FF09C09091110185E0989FC0011124EE
:1044C0009595879525C082FF03C0909111010DC07D
:1044D0008091B001882319F485E090E008956091FF
:1044E000120190911101861728F085E0989FC00174
:1044F00011240EC0899F90011124C901880F991FB2
:10450000880F991F820F931F70E00E947E2DCB01B0
:104510008038910510F08FE70895009709F481E045
:1045200008958091B10180FF05C0809113018695A7
:10453000869518C081FF04C080911301869512C032
:1045400082FF03C0809113010DC02091B00122238E
:1045500019F481E090E008956091140180911301B5
:10456000261710F090E007C0289FC001112470E0CA
:104570000E947E2DCB018038910510F08FE70895C1
:10458000009709F481E00895803F21F40E944922B8
:10459000819504C0813F29F40E9449228093AD0196
:1045A0000895823F21F40E944922819504C0833FEF
:1045B00029F40E9449228093AC010895893F19F49F
:1045C0000E94912205C08A3F31F40E949122819578
:1045D0008093AE0108958B3F21F40E949122819532
:1045E00004C08C3F29F40E9491228093AF0108956A
:1045F000843F21F48091AB01816017C0853F21F495
:104600008091AB01826011C0863F21F48091AB01A3
:1046100084600BC0873F21F48091AB01886005C0A6
:10462000883F31F48091AB0180618093AB010895A4
:104630008D3F21F48091B101816005C08E3F31F43E
:104640008091B10182608093B10108958F3F29F478
:104650008091B10184608093B1010895803F29F475
:104660008091AD0187FF6FC007C0813F41F4809109
:10467000AD0118160CF067C01092AD0164C0823F06
:1046800029F48091AC0187FF5EC007C0833F41F4ED
:104690008091AC0118160CF056C01092AC0153C0BA
:1046A000893F29F48091AE0118163CF04CC08A3F36
:1046B00039F48091AE0187FF46C01092AE0143C02D
:1046C0008B3F29F48091AF0187FF3DC006C08C3F2E
:1046D00039F48091AF011816B4F51092AF0133C0D0
:1046E000843F21F48091AB018E7F05C0853F31F47A
:1046F0008091AB018D7F8093AB0125C0863F21F473
:104700008091AB018B7FF7CF873F21F48091AB0184
:10471000877FF1CF883F21F48091AB018F7EEBCF73
:104720008D3F21F48091B1018E7F0BC08E3F21F42B
:104730008091B1018D7F05C08F3F29F48091B10137
:104740008B7F8093B1018091AC01882371F48091BB
:10475000AD01882351F48091AE01882331F480911A
:10476000AF01882311F41092B0010895EBEAF1E053
:1047700085E0DF011D928A95E9F71092B001109251
:10478000B10108958091A50183FFC1C081EF95E03B
:104790000E94F90600D000D0EDB7FEB731968CEE3E
:1047A00095E0ADB7BEB712969C938E93119780910A
:1047B000AB01828313820E9492070F900F900F909B
:1047C0000F908AEE95E00E94F90600D000D087EEA7
:1047D00095E0EDB7FEB7928381838091AC01992774
:1047E00087FD9095948383830E9492070F900F908A
:1047F0000F900F9085EE95E00E94F90600D000D052
:1048000082EE95E0ADB7BEB712969C938E9311974A
:104810008091AD01992787FD909514969C938E9376
:1048200013970E9492070F900F900F900F9080EEB9
:1048300095E00E94F90600D000D08DED95E0EDB72F
:10484000FEB7928381838091AE01992787FD909571
:10485000948383830E9492070F900F900F900F9084
:104860008BED95E00E94F90600D000D088ED95E030
:10487000ADB7BEB712969C938E9311978091AF01FE
:10488000992787FD909514969C938E9313970E9479
:1048900092070F900F900F900F9085ED95E00E947A
:1048A000F90600D000D0EDB7FEB7319682ED95E065
:1048B000ADB7BEB712969C938E9311978091B001BD
:1048C000828313820E9492070F900F900F900F9097
:1048D00080ED95E00E94F90600D000D0EDB7FEB75C
:1048E00031968DEC95E0ADB7BEB712969C938E9342
:1048F00011978091B101828313820E9492070F90D9
:104900000F900F900F908AEC95E00E94F9068BEAC9
:1049100091E00E9400120E94E81F9093B3018093DF
:10492000B20108951F938091B2019091B3010E944A
:10493000F51FAC012091B001222321F080911001DC
:1049400090E006C090910F018AE0989FC001112469
:104950004817590708F485C09091AC01992369F470
:104960008091AD01882349F48091AE01882329F418
:104970008091AF01882309F474C02F3F19F02F5F95
:104980002093B001191624F40E9449228093AC01AF
:104990008091AC0187FF05C00E94492281958093D8
:1049A000AC018091AD01181624F40E944922809335
:1049B000AD018091AD0187FF05C00E94492281951C
:1049C0008093AD016091AC01662339F11091AD0186
:1049D000112319F1772767FD7095872F972F0E9474
:1049E000832C23E333E343E35FE30E94E72C0E943D
:1049F000502C6093AC01612F772767FD7095872F4E
:104A0000972F0E94832C23E333E343E35FE30E9469
:104A1000E72C0E94502C6093AD018091AE011816D6
:104A200024F40E9491228093AE018091AE0187FF11
:104A300005C00E94912281958093AE018091AF01C3
:104A4000181624F40E9491228093AF018091AF0147
:104A500087FF05C00E94912281958093AF010E943B
:104A6000C2231F91089580E0089580E008958CE1AD
:104A70009AE00E94F906089580EA9AE00E94F906F9
:104A800000D000D000D0EDB7FEB7319682E59AE0B5
:104A9000ADB7BEB712969C938E93119785E090E0C8
:104AA0009383828381E090E0958384830E949207C0
:104AB0008DB79EB706960FB6F8949EBF0FBE8DBFFA
:104AC0000895833009F452C0843030F4813071F09D
:104AD000823009F0DAC02AC0853009F487C08530F9
:104AE00008F464C0863009F0D0C0A8C020910F013E
:104AF000822F90E0860F911D8F3F910520F4260FA5
:104B000020930F0103C08FEF80930F0100D000D0DE
:104B1000EDB7FEB7319681EC9CE0ADB7BEB712960B
:104B20009C938E93119780910F017FC0209110016B
:104B3000822F90E0860F911D8F3F910520F4260F64
:104B40002093100103C08FEF8093100100D000D09C
:104B5000EDB7FEB731968FEA9CE0ADB7BEB71296BF
:104B60009C938E931197809110015FC02091110149
:104B7000822F90E0860F911D8F3F910520F4260F24
:104B80002093110103C08FEF8093110100D000D05A
:104B9000EDB7FEB731968CE99CE0ADB7BEB7129683
:104BA0009C938E931197809111013FC02091120127
:104BB000822F90E0860F911D8F3F910520F4260FE4
:104BC0002093120103C08FEF8093120100D000D018
:104BD000EDB7FEB7319687E89CE0ADB7BEB7129649
:104BE0009C938E931197809112011FC02091130105
:104BF000822F90E0860F911D8F3F910520F4260FA4
:104C00002093130103C08FEF8093130100D000D0D5
:104C1000EDB7FEB731968EE69CE0ADB7BEB7129603
:104C20009C938E93119780911301828313820E942B
:104C300092070F900F900F900F90089520911401FC
:104C4000822F90E0860F911D8F3F910520F4260F53
:104C50002093140103C08FEF8093140100D000D083
:104C6000EDB7FEB7319683E59CE0ADB7BEB71296BF
:104C70009C938E93119780911401828313820E94DA
:104C800092070F900F900F900F900895833009F4C2
:104C900046C0843030F4813071F0823009F0B6C003
:104CA00024C0853009F46FC0853008F452C08630C6
:104CB00009F0ACC08AC080910F01681720F4861BF0
:104CC00080930F0102C010920F0100D000D0EDB709
:104CD000FEB731968EE39DE0ADB7BEB712969C93BA
:104CE0008E93119780910F0167C080911001681712
:104CF00020F4861B8093100102C01092100100D096
:104D000000D0EDB7FEB731968CE29DE0ADB7BEB7EF
:104D100012969C938E931197809110014DC08091B3
:104D20001101681720F4861B8093110102C01092B4
:104D3000110100D000D0EDB7FEB7319689E19DE0BA
:104D4000ADB7BEB712969C938E93119780911101C7
:104D500033C080911201681720F4861B80931201E2
:104D600002C01092120100D000D0EDB7FEB731960C
:104D700084E09DE0ADB7BEB712969C938E931197D9
:104D80008091120119C080911301681720F4861BCD
:104D90008093130102C01092130100D000D0EDB730
:104DA000FEB731968BEE9CE0ADB7BEB712969C93E2
:104DB0008E93119780911301828313820E94920730
:104DC0000F900F900F900F90089580911401681725
:104DD00020F4861B8093140102C01092140100D0AD
:104DE00000D0EDB7FEB7319680ED9CE0ADB7BEB711
:104DF00012969C938E931197809114018283138253
:104E00000E9492070F900F900F900F9008951F939C
:104E1000182F00D000D0EDB7FEB7319683E49AE0AA
:104E2000ADB7BEB712969C938E93119712831382DF
:104E30000E9492070F900F900F900F9061E070E02A
:104E400080E090E004C0660F771F881F991F1A95B5
:104E5000D2F70E94F81C0E94D6131F9108951F9349
:104E60008B3109F463C28C3120F58E3009F479C29C
:104E70008F3078F4873009F44AC2883020F48630C5
:104E800009F039C323C28830B1F18B3009F033C344
:104E900017C2813109F417C3823120F4803109F03F
:104EA0002AC375C2863109F4A1C2893109F023C32E
:104EB00086C2853309F417C3863368F4873209F450
:104EC00012C3883220F48E3108F415C30EC3893220
:104ED00009F011C308C3833438F48A3308F007C3D8
:104EE000883309F008C3ECC1833409F4FCC2883468
:104EF00009F001C3FAC189E298E00E94F90687E649
:104F000099E00E94F9060E94192200D000D0EDB766
:104F1000FEB7319624E639E0ADB7BEB712963C93A2
:104F20002E931197828313820E9492070F900F9005
:104F30000F900F9082E699E00E94F9060E941E22CF
:104F4000182F8FE499E00E94F90600D000D0EDB749
:104F5000FEB731968AE499E0ADB7BEB712969C933E
:104F60008E931197128313820E9492070F900F90D5
:104F70000F900F9088E499E00E94F9068EE399E083
:104F80000E94F90600D000D0EDB7FEB731968BE352
:104F900099E0ADB7BEB712969C938E931197812F6F
:104FA0008170828313820E9492070F900F900F905E
:104FB0000F9089E399E00E94F9068FE299E00E9440
:104FC000F90600D000D0EDB7FEB731968CE299E03B
:104FD000ADB7BEB712969C938E931197812F86958D
:104FE0008170828313820E9492070F900F900F901E
:104FF0000F908AE299E00E94F9068EE199E00E9402
:10500000F90600D000D0EDB7FEB731968BE199E0FC
:10501000ADB7BEB712969C938E93119716951695C1
:10502000812F8170828313820E9492070F900F90CC
:105030000F900F9089E199E00E94F90680E199E0D4
:105040000E94F90600D000D0EDB7FEB731968DE092
:1050500099E0ADB7BEB712969C938E9311971695B3
:105060001170128313820E9492070F900F900F907D
:105070000F908BE099E00E94F9060E941422182FED
:1050800087EF98E00E94F90600D000D0EDB7FEB798
:10509000319682EF98E0ADB7BEB712969C938E938F
:1050A0001197128313820E9492070F900F900F9016
:1050B0000F9080EF98E00E94F90687ED98E00E943B
:1050C000F90600D000D0EDB7FEB7319684ED98E038
:1050D000ADB7BEB712969C938E931197812F8170B6
:1050E000828313820E9492070F900F900F900F906F
:1050F00082ED98E00E94F9068BEB98E00E94F90699
:1051000000D000D0EDB7FEB7319688EB98E0ADB790
:10511000BEB712969C938E931197812F86958170BE
:10512000828313820E9492070F900F900F900F902E
:1051300086EB98E00E94F90684EA98E00E94F9065E
:1051400000D000D0EDB7FEB7319681EA98E0ADB758
:10515000BEB712969C938E931197812F8695869554
:105160008170828313820E9492070F900F900F909C
:105170000F908FE998E00E94F9068DE898E00E9470
:10518000F90600D000D0EDB7FEB731968AE898E076
:10519000ADB7BEB712969C938E931197812F8695CB
:1051A000869586958170828313820E9492070F9064
:1051B0000F900F900F9088E898E00E94F9068EE714
:1051C00098E00E94F90600D000D0EDB7FEB7319606
:1051D0008BE798E0ADB7BEB712969C938E9311976C
:1051E000812F82958170828313820E9492070F9093
:1051F0000F900F900F9089E798E00E94F90687E6DC
:1052000098E00E94F90600D000D0EDB7FEB73196C5
:1052100084E698E0ADB7BEB712969C938E93119733
:10522000812F829586958170828313820E949207D6
:105230000F900F900F900F9082E698E00E94F90671
:1052400086E498E00E94F90600D000D0EDB7FEB7E2
:10525000319683E498E0ADB7BEB712969C938E93D7
:1052600011971295169516951370812F8170828370
:1052700013820E9492070F900F900F900F9081E47D
:1052800098E00E94F90689E398E00E94F90600D0B0
:1052900000D0EDB7FEB7319686E398E0ADB7BEB764
:1052A00012969C938E9311971695128313820E94E7
:1052B00092070F900F900F900F9084E398E002C038
:1052C00087E799E00E94F90681E01AC18091A50163
:1052D000807F8093A5010E94372585E298E00E9497
:1052E000F90681E08093B4010BC10E94D61384E1DA
:1052F00098E00E94F90680E197E220E931E0F901A7
:105300003197F1F70197D9F70E944520DDCF8091C1
:10531000A50180FF08C087E098E00E94F90680910F
:10532000A501807F18C08BEF97E010C08091A50188
:10533000982F969590959170292F220F8D7F822B13
:105340008093A501992351F08EEE97E00E94F90613
:105350008091A50181608093A501B6CF80EE97E092
:10536000B1CF8091A501982F9695969590959170C3
:10537000292F220F220F8B7F822B8093A501992347
:1053800019F081ED97E0E2CF81EC97E09BCF80911F
:10539000A501982F96959695969590959170292FA1
:1053A000220F220F220F877F822B8093A501992342
:1053B00019F085EB97E0CACF88EA97E083CF89E9B7
:1053C00097E00E94F90680E797E00E94F9068BE3D8
:1053D00097E00E94F90684E197E00E94F9068FECBD
:1053E00096E00E94F90684EA96E06CCF86E996E0A2
:1053F0000E94F9060E94F31100D000D0EDB7FEB76D
:1054000031962CE736E0ADB7BEB712963C932E939B
:105410001197828313820E949207EDB7FEB73196EF
:1054200085E696E0ADB7BEB712969C938E93119722
:1054300080910101828313820E949207EDB7FEB72B
:10544000319682E596E0ADB7BEB712969C938E93E7
:10545000119780912C01828313820E949207EDB7ED
:10546000FEB731968FE396E0ADB7BEB712969C9328
:105470008E93119780910C01828313820E94920770
:105480002091A7013091A8014091A9015091AA0152
:1054900000D08BE296E0EDB7FEB792838183ADB783
:1054A000BEB713962D933D934D935C9316970E9430
:1054B000920781E0EDB7FEB736960FB6F894FEBFBF
:1054C0000FBEEDBF1DC00E94D61380910C0191E06C
:1054D000892780930C01882319F081E296E0F2CEAF
:1054E00086E196E0EFCE80E003C08D5101C0895384
:1054F0000E940727E9CE84E196E00E94F90680E049
:105500001F9108951F93182F8091B401813079F075
:10551000813020F0823009F0BEC148C0E0910D0119
:10552000F0910E018081823209F0B7C107C0E0918D
:105530000D01F0910E018081823249F4812F0E9489
:105540003325882349F5812F0E942F27A7C1812F5A
:105550000E943525882301F5143191F0153128F486
:105560001B3039F01031D9F40EC0193249F018331C
:10557000B1F40E94372588E49AE00E94F9060CC035
:105580001092B40110C00E943C258EE49AE00E9463
:10559000F90682E08093B40181E090E07FC18CE461
:1055A0009AE00E94F90680E090E078C1143288F415
:1055B0001E3108F0F2C01B3009F11C3020F4173006
:1055C00009F045C12DC1133159F1143109F03FC122
:1055D00018C01B3409F418C11C3430F4193289F096
:1055E000183309F034C10AC0113509F409C1123564
:1055F00009F402C11E3409F02AC10CC10E943C25E5
:1056000029C18091B501882319F01092B50122C1FA
:1056100083EB9BE00E94F90681E08093B4013EC1D8
:1056200085E49CE00E94F90683E39CE00E94F90671
:1056300000D000D0EDB7FEB7319680E39CE0ADB767
:10564000BEB712969C938E93119780910F0182831F
:1056500013820E9492070F900F900F900F908EE28E
:105660009CE00E94F9068CE19CE00E94F90600D0C3
:1056700000D0EDB7FEB7319689E19CE0ADB7BEB77B
:1056800012969C938E9311978091100182831382BE
:105690000E9492070F900F900F900F9087E19CE06F
:1056A0000E94F90688E09CE00E94F90600D000D034
:1056B000EDB7FEB7319685E09CE0ADB7BEB7129668
:1056C0009C938E93119780911101828313820E9483
:1056D00092070F900F900F900F9083E09CE00E9434
:1056E000F90682EF9BE00E94F90600D000D0EDB7EA
:1056F000FEB731968FEE9BE0ADB7BEB712969C9386
:105700008E93119780911201828313820E949207D7
:105710000F900F900F900F908DEE9BE00E94F90676
:1057200088ED9BE00E94F90600D000D0EDB7FEB7EF
:10573000319685ED9BE0ADB7BEB712969C938E93E4
:10574000119780911301828313820E9492070F9018
:105750000F900F900F9083ED9BE00E94F9068CEB69
:105760009BE00E94F90600D000D0EDB7FEB731965D
:1057700089EB9BE0ADB7BEB712969C938E931197C1
:1057800080911401828313820E9492070F900F90E0
:105790000F900F9087EB9BE057C01232F9F0133255
:1057A00060F41F3199F0103218F41E3109F510C061
:1057B000103281F01132E1F40FC0143299F014323A
:1057C00078F0153289F0163299F410C082E011C0D9
:1057D00081E00FC083E00DC084E00BC085E009C00C
:1057E00086E007C087E005C088E003C089E001C00B
:1057F00080E08093B5012EC08091B50161E007C0C3
:105800008091B50161E009C08091B5016AE00E9414
:10581000612520C08091B5016AE00E9446261AC029
:105820008EE180930F0182E3809310018AE08093E0
:10583000110184E18093120188E08093130188E2D2
:105840008093140186EA9BE00E94F90603C084EA73
:105850009BE01DC02091B5012223B9F000D000D0FB
:10586000EDB7FEB731968EE99BE0ADB7BEB71296A5
:105870009C938E931197228313820E94920781E05A
:105880000F900F900F900F9009C08BE99BE00E9442
:10589000F90681E003C01092B40180E01F910895E1
:1058A00004D06894B1118DC0089570D088F09F57CE
:1058B00090F0B92F9927B751A0F0D1F0660F771F5C
:1058C000881F991F1AF0BA95C9F712C0B13081F03C
:1058D00077D0B1E0089574C0672F782F8827B85F1C
:1058E00039F0B93FCCF3869577956795B395D9F79D
:1058F0003EF490958095709561957F4F8F4F9F4FA7
:105900000895E89409C097FB3EF4909580957095B2
:1059100061957F4F8F4F9F4F9923A9F0F92F96E9FB
:10592000BB279395F695879577956795B795F11170
:10593000F8CFFAF4BB0F11F460FF1BC06F5F7F4F0D
:105940008F4F9F4F16C0882311F096E911C077231F
:1059500021F09EE8872F762F05C0662371F096E828
:10596000862F70E060E02AF09A95660F771F881FF7
:10597000DAF7880F9695879597F9089557FD90580F
:10598000440F551F59F05F3F71F04795880F97FB03
:10599000991F61F09F3F79F08795089512161306BD
:1059A0001406551FF2CF4695F1DF08C016161706EC
:1059B0001806991FF1CF8695710561050894089521
:1059C000E894BB2766277727CB0197F908950BD07A
:1059D00078C069D028F06ED018F0952309F05AC02D
:1059E0005FC01124EECFCADFA0F3959FD1F3950FCE
:1059F00050E0551F629FF001729FBB27F00DB11D53
:105A0000639FAA27F00DB11DAA1F649F6627B00DE2
:105A1000A11D661F829F2227B00DA11D621F739FCB
:105A2000B00DA11D621F839FA00D611D221F749FD9
:105A30003327A00D611D231F849F600D211D822F20
:105A4000762F6A2F11249F5750408AF0E1F0882367
:105A50004AF0EE0FFF1FBB1F661F771F881F915074
:105A60005040A9F79E3F510570F014C0AACF5F3F88
:105A7000ECF3983EDCF3869577956795B795F795A7
:105A8000E7959F5FC1F7FE2B880F911D969587952F
:105A900097F9089597F99F6780E870E060E00895AE
:105AA0009FEF80EC089500240A9416161706180636
:105AB0000906089500240A94121613061406050612
:105AC0000895092E0394000C11F4882352F0BB0FA3
:105AD00040F4BF2B11F460FF04C06F5F7F4F8F4F06
