:100000000C940B010C944F010C944F010C944F0174
:100010000C944F010C944F010C944F010C944F0120
:100020000C944F010C944F010C94D5060C94990636
:100030000C94BF140C944F010C944F010C944F017D
:100040000C944F010C944F010C944F010C944F01F0
:100050000C944F010C9416150C944F010C944F0105
:100060000C944F010C944F010C944F010C944F01D0
:100070000C944F010C944F010C944F010C944F01C0
:100080000C944F010C944F010C944F010C944F01B0
:100090000C944F010C944F010C944F010C944F01A0
:1000A0000C944F010C944F010C944F01291E1F20FA
:1000B00021224C2B141A08151731C1041607090AFE
:1000C00034E11D1B061905C2E3E213002AC028E033
:1000D000000000000000012726252423010113123F
:1000E0000C181C0101330F0E0D0B010138373610AF
:1000F00011010101010001010101000000000000E7
:10010000BF0000000000000000004E4B0000C100D6
:100110004F525150000000004D4A00000000000006
:100120000000000000000000000035C3C4C5C6C7C1
:100130000000C8C9CACBCCCD002D2E2F3000000046
:100140000000000000C200000000000000000000ED
:10015000000000002CA1048A088A1E021F0220024F
:10016000210222022702260225022402230234024F
:1001700005010906A101050719E029E71500250178
:10018000950875018102950175088101050819011D
:1001900029059505750191029501750391010507E2
:1001A000190029FF150025FF950675088100C0126A
:1001B00001100100000008EDFE6060010001020076
:1001C0000109022200010100A0320904000001031C
:1001D000010100092111010001223F0007058103EF
:1001E00008000A040309041603440061006E006E4F
:1001F0000079005400730075006500690000001468
:100200000350006F006C00610072006200650061C5
:1002100000720000000011241FBECFEFDAE0DEBF45
:10022000CDBF04B603FE24C080918F019091900150
:10023000A0919101B09192018750904BA740B04B93
:10024000B9F410928F0110929001109291011092C6
:10025000920114BE84B7877F84BF88E10FB6F894FB
:1002600080936000109260000FBEE0E0F8E3099513
:1002700011E0A0E0B1E0E2ECFAE202C005900D92DC
:10028000AE30B107D9F711E0AEE0B1E001C01D9288
:10029000AF38B107E1F70E94FA020C945F150C9495
:1002A000000097E0799FF0011124E60FF11D9AE21A
:1002B000899FC0011124E80FF91FE455FF4FE49115
:1002C0008E2F08951F93182F803C19F480E20E940E
:1002D0004702E12FF0E0EE0FFF1FEC52F0402591B6
:1002E0003491C9011F910895EEE0F1E0E80FF11D8E
:1002F00080810895089584B1837884B985B1837825
:1003000085B96A98729808950E947B013F98479A30
:1003100080B38C7080BB81B3836F81BB80E090E041
:10032000FC01E25FFE4F1082FC01EC5EFE4F10828A
:10033000019686309105A1F70895FF920F931F93C0
:10034000CF93DF9300910001C4E1D1E010E080EA97
:10035000F82E1230A1F0133028F4112351F011308F
:10036000C9F40AC0143089F0143060F0153091F4EB
:100370000FC06A9A72980EC0269A2E980BC0259AC2
:100380002D9808C0249A2C9805C0239A2B9802C057
:10039000229A2A988F2D8A95F1F796B18FB1809580
:1003A000881F8827881F880F7E9902C064E001C0DB
:1003B00060E07D9902C058E001C050E07C9902C025
:1003C00040E101C040E0799902C030E201C030E074
:1003D000789902C020E401C020E09095991F9927E8
:1003E000991F982B962B952B942B932B922B8881CE
:1003F000891711F0988305E00E947B011F5F219609
:10040000163009F0A6CF00930001002319F1802FC8
:10041000815080930001882329F080EA9FE00197B2
:10042000F1F718C08091140180930E01809115019D
:1004300080930F0180911601809310018091170124
:10044000809311018091180180931201809119010C
:100450008093130181E0DF91CF911F910F91FF9065
:10046000089581FF03C03F98479A089585FF03C010
:100470003E98469A089586FF03C053985B9A089564
:100480003F9847983E98469853985B98089585FF03
:1004900004C08BB190E489278BB90895109285012F
:1004A00008950895089580911B0108950895DF939C
:1004B000CF9300D00F92CDB7DEB7AC01809186010B
:1004C000843029F581E08093E9002FEF95ED05C098
:1004D000892F8A95F1F7222329F08091E800215095
:1004E00085FFF6CF8091E80085FF11C05B834A83CA
:1004F00083E08983CE01019663E070E040E050E044
:100500000E943B058091E8008E778093E8000F9071
:100510000F900F90CF91DF910895DF93CF9300D08C
:100520000F92CDB7DEB7AC0180918601843029F5FA
:1005300081E08093E9002FEF95ED05C0892F8A9522
:10054000F1F7222329F08091E800215085FFF6CFB2
:100550008091E80085FF11C05B834A8382E0898334
:10056000CE01019663E070E040E050E00E943B0560
:100570008091E8008E778093E8000F900F900F90A5
:10058000CF91DF9108950F931F93182F092F80911A
:100590008601843061F581E08093E9009FEF25EDCD
:1005A00005C0822F8A95F1F7992329F08091E80000
:1005B000915085FFF6CF8091E80085FF18C0812F0C
:1005C000902F68E070E040E050E00E943B05809191
:1005D000E8008E778093E800ACE1B1E0212F302F66
:1005E000C901FC0188E001900D928150E1F71F9153
:1005F0000F91089584B7877F84BF88E10FB6F89480
:1006000080936000109260000FBE80E090E020E8D0
:100610000FB6F89420936100809361000FBE0E9492
:1006200066090E9419060E947A068091E2008460A1
:100630008093E2007894809186018430E1F70E94F3
:10064000000A82E091E00E9418090CC00E949714F1
:1006500080918401882331F00E94EB14882311F0EB
:100660000E94500480918601853081F30E946C09BC
:10067000F9CF80918501882349F40E9419060E94D0
:100680007A068091E20084608093E2000895809170
:100690008801833009F455C0843030F4813071F022
:1006A000823009F0AFC096C08A3009F483C08B3025
:1006B00009F468C0893009F0A5C020C08091870185
:1006C000813A09F09FC08091E800877F8093E8001D
:1006D00080918B0190918C01892B21F48CE191E028
:1006E00068E003C080E090E060E070E00E94660493
:1006F0008091E8008B778093E800089580918701CE
:10070000813209F07FC080918B0190918C01892BFF
:1007100009F078C08091E800877F8093E80005C0E9
:1007200080918601882309F46DC08091E80082FFE2
:10073000F7CF8091F10080931B018091E8008B77C7
:100740001CC080918701813A09F05CC080918B01C7
:1007500090918C01892B09F055C08091E800877F2A
:100760008093E8008091E80080FFFCCF8091010138
:100770008093F1008091E8008E778093E8000E94DA
:10078000C6050895809187018132E1F580918B0142
:1007900090918C01892BB1F58091E800877F80933F
:1007A000E8000E94C60580918901809301010E94A2
:1007B000580A089580918701813221F58091E800DF
:1007C000877F8093E8000E94C60580918A0180930C
:1007D0001A01089580918701813AA1F48091E8007F
:1007E000877F8093E8008091E80080FFFCCF8091B4
:1007F0001A018093F1008091E8008E778093E800E1
:100800000E94C605089581E061EC42E00E948E05D9
:1008100008950E94E8140895DA019330B1F09430FD
:1008200028F4913041F0923099F50AC0913211F1DB
:10083000923271F526C022E130E0EFEAF1E02CC0FF
:1008400022E230E0E1ECF1E027C0813049F0813074
:1008500018F08230E9F408C0E3EEF1E0849107C0BB
:10086000E7EEF1E0849103C0EFEFF1E08491282FEF
:1008700030E012C0662361F429E030E0E3EDF1E0FE
:100880000BC0662329F42FE330E0E0E7F1E004C079
:1008900020E030E0E0E0F0E0ED93FC93C901089542
:1008A00080E189BD82E189BD09B400FEFDCF809160
:1008B000D8008F7D8093D8008091E0008260809383
:1008C000E0008091E00081FDFCCF08959C01409103
:1008D0008D0150918E014617570718F4F90190E0E9
:1008E00043C06115710511F0AB01F8CF8091E800AC
:1008F0008E778093E80040E050E0F0CF8091860151
:10090000882309F447C0853009F446C08091E80087
:1009100083FD44C08091E80082FD36C08091E800EC
:1009200080FF22C08091F3009091F200782F60E068
:10093000292F30E0262B372B07C081918093F100BF
:10094000415050402F5F3F4F4115510519F028305D
:10095000310598F390E02830310509F491E0809159
:10096000E8008E778093E8004115510539F6992308
:1009700029F60AC080918601882361F0853061F0F4
:100980008091E80083FD0AC08091E80082FFF2CFE9
:1009900080E0089582E0089583E0089581E008955D
:1009A0009C0140918D0150918E014617570718F414
:1009B000F90190E044C06115710511F0AB01F8CF69
:1009C0008091E8008E778093E80040E050E0F0CF1F
:1009D00080918601882309F448C0853009F447C016
:1009E0008091E80083FD45C08091E80082FD37C01A
:1009F0008091E80080FF23C08091F3009091F20085
:100A0000782F60E0292F30E0262B372B08C0849107
:100A10008093F1003196415050402F5F3F4F411578
:100A2000510519F02830310590F390E02830310558
:100A300009F491E08091E8008E778093E8004115F9
:100A4000510531F6992321F60AC080918601882349
:100A500061F0853061F08091E80083FD0AC08091EB
:100A6000E80082FFF2CF80E0089582E0089583E0FD
:100A7000089581E00895BF92CF92DF92EF92FF92A6
:100A80000F931F93CF93DF93182F092F7B016A01D8
:100A90000E94E705B82E8823B1F5812F902F9C0185
:100AA000E901C114D10439F0F60180819181E81A7D
:100AB000F90AC80FD91F00E010E022C08091E800B9
:100AC00085FD16C08091E8008E778093E800C11400
:100AD000D10449F0F60180819181800F911F9183AB
:100AE000808385E011C00E94E705882349F00CC08F
:100AF00089918093F1000894E108F1080F5F1F4F7E
:100B0000E114F104D9F68B2DDF91CF911F910F9154
:100B1000FF90EF90DF90CF90BF900895382F282F4F
:100B20002EC0822F8F708093E900231721F4762F37
:100B3000942F50E006C07091EC009091ED00509120
:100B4000F00091FF1BC08091EB008E7F8093EB0043
:100B50008091ED008D7F8093ED008091EB008160AE
:100B60008093EB007093EC009093ED005093F000B5
:100B70008091EE0087FD02C080E008952F5F27304E
:100B800080F23F703093E90081E008958091870101
:100B900088239CF404C0809186018823B9F0809159
:100BA000E80082FFF8CF8091E8008B778093E8001F
:100BB000089580918601882349F08091E80080FFA4
:100BC000F8CF8091E8008E778093E80008954091F7
:100BD000E4005091E50024E68091EC0080FF24C001
:100BE0008091E80080FD1EC080918601882311F469
:100BF00082E00895853011F483E008958091EB0040
:100C000085FF02C081E008958091E4009091E500A5
:100C10008417950709F3222311F484E008952150E5
:100C2000AC01DACF80E008958091E80082FFDCCF4C
:100C3000F9CF0E948C060E949406E0EEF0E08081DD
:100C400081608083A8EDB0E08C918F778C9319BC84
:100C5000E7EDF0E080818E7F80838C918F7E8C9396
:100C6000109285010895EF92FF920F931F930E94B7
:100C70008C060E94940608ED10E0F80180818F77C1
:100C8000808380818068808380818F7D808319BC90
:100C900010928601109282011092840110928301B9
:100CA00080EEE82EF12CF70180818B7F8083F801A4
:100CB00080818160808380E060E042E00E948E0558
:100CC000E1EEF0E080818E7F8083E2EEF0E08081D3
:100CD00081608083808188608083F70180818E7F3E
:100CE0008083F8018081806180831F910F91FF9044
:100CF000EF900895E8EDF0E080818F7E8083E7ED4E
:100D0000F0E080818160808384E082BF81E0809315
:100D100085010E9433060895E8EDF0E080818E7F22
:100D200080831092E20008951092DA001092E100A0
:100D300008951F920F920FB60F9211241F932F93B5
:100D40003F934F935F936F937F938F939F93AF9353
:100D5000BF93EF93FF931091E9008091EC00109204
:100D6000E9008091F000877F8093F00078940E94E2
:100D7000A7071092E9008091F00088608093F0004E
:100D80001F701093E900FF91EF91BF91AF919F9178
:100D90008F917F916F915F914F913F912F911F9113
:100DA0000F900FBE0F901F9018951F920F920FB6C5
:100DB0000F9211242F933F934F935F936F937F93E1
:100DC0008F939F93AF93BF93EF93FF938091E10035
:100DD00082FF0BC08091E20082FF07C08091E1009A
:100DE0008B7F8093E1000E9417098091DA0080FFD9
:100DF0001FC08091D80080FF1BC08091DA008E7FD9
:100E00008093DA008091D90080FF0DC080E189BD18
:100E100082E189BD09B400FEFDCF81E080938601A7
:100E20000E94390305C019BC109286010E944E022F
:100E30008091E10080FF19C08091E20080FF15C021
:100E40008091E2008E7F8093E2008091E2008061D9
:100E50008093E2008091D80080628093D80019BC12
:100E600085E0809386010E9452028091E10084FF18
:100E700030C08091E20084FF2CC080E189BD82E116
:100E800089BD09B400FEFDCF8091D8008F7D80938D
:100E9000D8008091E1008F7E8093E1008091E20094
:100EA0008F7E8093E2008091E20081608093E20077
:100EB00080918201882311F084E007C08091E300D3
:100EC00087FD02C081E001C083E0809386010E941B
:100ED00009048091E10083FF29C08091E20083FF33
:100EE00025C08091E100877F8093E10082E08093BC
:100EF0008601109282018091E1008E7F8093E10053
:100F00008091E2008E7F8093E2008091E200806118
:100F10008093E20080E060E042E00E948E058091D4
:100F2000F00088608093F0000E945102FF91EF91E1
:100F3000BF91AF919F918F917F916F915F914F91F1
:100F40003F912F910F900FBE0F901F9018951F93F8
:100F5000DF93CF93CDB7DEB7AC970FB6F894DEBF73
:100F60000FBECDBFE7E8F1E08091F100819321E071
:100F7000EF38F207C9F70E9447038091E80083FF2A
:100F80003EC18091870130918801353009F487C0D6
:100F9000363040F43130C9F1313070F0333009F07F
:100FA0002EC133C0383009F4F9C0393009F409C111
:100FB000363009F024C197C0803821F0823809F01A
:100FC0001EC108C09091830180918401882399F00B
:100FD000926011C080918B018F708093E9008091A5
:100FE000EB0090E025E0969587952A95E1F7982FFC
:100FF00091701092E9008091E800877F8093E8006B
:101000009093F1001092F100D4C0882319F082303F
:1010100009F0F5C090E08F719070009721F0029771
:1010200009F0EDC00CC080918901813009F0E7C062
:1010300010928401333069F5809384012AC0809135
:101040008901882331F520918B012F7009F4D7C0D5
:101050002093E9008091EB0080FF1BC0333021F426
:101060008091EB00806213C08091EB0080618093DF
:10107000EB0081E090E002C0880F991F2A95E2F70B
:101080008093EA001092EA008091EB0088608093E0
:10109000EB001092E9008091E800877F8DC08823E3
:1010A00009F0ADC0109189011F778091E30080782D
:1010B000812B8093E3008091E800877F8093E80094
:1010C0000E94C6058091E80080FFFCCF8091E3007C
:1010D00080688093E300112311F482E001C083E073
:1010E000809386018CC08058823008F088C080913F
:1010F000890190918A0123E08C3D920709F034C068
:1011000083E08C838AE28B837FB7F894DE011596A7
:101110006EE040E050E011E2E62FF0E0109357005F
:10112000849140FF03C082958F706F5F8F70282F6E
:1011300030E08A3018F0C901C79602C0C901C096D4
:101140008D939D934F5F5F4F4431510529F77FBFCA
:101150008091E800877F8093E800CE0103966AE2E1
:1011600070E00E94660414C060918B01AE014F5F75
:101170005F4F0E940C04BC01009709F440C08091AD
:10118000E800877F8093E80089819A810E94D004DB
:101190008091E8008B778093E80031C0803879F542
:1011A0008091E800877F8093E8008091820180939E
:1011B000F1008091E8008E778093E8000E94C605D8
:1011C0001EC08823E1F4909189019230C0F480918F
:1011D000E800877F8093E800909382010E94C60513
:1011E00080918201882331F48091E30087FD02C061
:1011F00081E001C084E0809386010E940304809115
:10120000E80083FF0AC08091E800877F8093E800B0
:101210008091EB0080628093EB00AC960FB6F8945F
:10122000DEBF0FBECDBFCF91DF911F91089508950E
:1012300090932901809328010895E0912801F0916D
:101240002901309711F480E008950190F081E02D9C
:1012500009950895E0912801F0912901309721F036
:101260000280F381E02D099508959C01809126016B
:10127000909127012817390779F03093270120939F
:101280002601E0912801F0912901309729F006808C
:10129000F781E02DC901099508959C0180912401F1
:1012A000909125012817390779F030932501209373
:1012B0002401E0912801F0912901309729F0008460
:1012C000F185E02DC9010995089508950E946509E9
:1012D00008950E9431020895BF92CF92DF92EF925B
:1012E000FF920F931F93DF93CF93CDB7DEB72A976B
:1012F0000FB6F894DEBF0FBECDBF0E949D01EE2455
:10130000FF24BE2C8E2D0E947401C82EF701E55DCE
:10131000FE4FD080D82609F43FC080917C0181FF28
:1013200002C00E947A0100E010E0ED2DF0E0CF0154
:10133000002E02C0959587950A94E2F780FF27C09A
:101340000E9409150983BA826C2D70E0002E02C03C
:10135000759567950A94E2F7617070706B83816090
:101360009D838C83402F5B2D782F8D810E94920D61
:10137000F701E55DFE4F81E090E0002E02C0880F8E
:10138000991F0A94E2F72081282720831DC00F5F50
:101390001F4F0730110559F60894E11CF11C86E037
:1013A000E816F10409F0ADCF0E9409152FEF2E8346
:1013B0002F8318868160782F9A8789874FEF5FEF98
:1013C00060E08A850E94920D10912A010E941D09F9
:1013D000181731F00E941D0980932A010E946909A3
:1013E0002A960FB6F894DEBF0FBECDBFCF91DF9126
:1013F0001F910F91FF90EF90DF90CF90BF900895D5
:101400000E9400150E9484010895DF93CF9300D0BD
:1014100000D00F92CDB7DEB70F900F900F900F90C6
:101420000F90CF91DF910895DF93CF9300D000D03C
:1014300000D0CDB7DEB726960FB6F894DEBF0FBE4C
:10144000CDBFCF91DF9108950E940912482F892FB7
:1014500082958F70282F30E02C3031054CF42A30E3
:1014600031056CF42250304022303105C0F407C001
:101470002C30310551F02F30310589F406C0403E43
:1014800010F0403F61F481E008959F70892F90E053
:1014900023E0969587952A95E1F78170089580E07D
:1014A00008950E949C130E946E130E94B413089525
:1014B0000E948C130E94510A0895882321F00E94F3
:1014C00085130E94B4130895882321F00E947F138E
:1014D0000E94B4130895282F882309F44EC082383F
:1014E00059F40E941D0981FF48C089E30E943D1301
:1014F0000E94B41389E30CC0833869F40E941D096B
:1015000080FF3BC083E50E943D130E94B41383E536
:101510000E945B131FC0843859F40E941D0982FF8A
:101520002CC087E40E943D130E94B41387E4F0CFDF
:101530008450813A10F4822FEBCF822F805E883066
:1015400060F4277081E090E001C0880F2A95EAF7E7
:101550000E9485130E94B4130895822F855A833008
:1015600028F480E090E00E9435090895285A23313C
:1015700020F480E090E00E944D090895282F8823F0
:1015800009F4CAC0823859F40E941D0981FDC4C003
:1015900089E30E943D130E94B41389E30CC0833891
:1015A00069F40E941D0980FDB7C083E50E943D13C8
:1015B0000E94B41383E50E945B1321C0843859F460
:1015C0000E941D0982FDA8C087E40E943D130E946D
:1015D000B41387E4F0CF8450813A20F4822F0E9424
:1015E0003D130DC0822F805E883060F4277081E04B
:1015F00090E001C0880F2A95EAF70E947F130E94AD
:10160000B4130895822F855A8330A0F4253A19F433
:1016100081E890E00CC0263A19F482E890E007C017
:10162000273A19F080E090E002C083E890E00E9441
:1016300035090895822F885A833108F06DC0283A01
:1016400019F482EE90E066C0293A19F489EE90E030
:1016500061C02A3A19F48AEE90E05CC02B3A19F482
:1016600085EB90E057C02C3A19F486EB90E052C01D
:101670002B3B19F483EB90E04DC02C3B19F484EB29
:1016800090E048C02D3A19F487EB90E043C0203B2E
:1016900019F48CEC90E03EC02E3A19F48DEC90E0F9
:1016A00039C02F3A19F483E891E034C0213B19F492
:1016B0008AE891E02FC0223B19F482E991E02AC028
:1016C000233B19F484E991E025C0243B19F481E21D
:1016D00092E020C0253B19F483E292E01BC0263B38
:1016E00019F484E292E016C0273B19F485E292E0F7
:1016F00011C0283B19F486E292E00CC0293B19F492
:1017000087E292E007C02A3B19F080E090E002C037
:101710008AE292E00E944D090895AF92BF92CF9263
:10172000DF92EF92FF920F931F93DF93CF93CDB78A
:10173000DEB72A970FB6F894DEBF0FBECDBF5C01AF
:10174000DE011196FC0185E001900D928150E1F7D8
:10175000FB80F501058102950F70DE011696FE01F2
:10176000319685E001900D928150E1F73E812F8105
:1017700089859A85892B09F4C4C12F3F09F09BC143
:101780003F3F09F098C1BDC18D2D8F70F0EFDF2272
:1017900011F4182F03C0182F1295107FFF2049F065
:1017A000112309F462C1812F0E948F130E94B41388
:1017B0005CC18C2D0E946B0A112309F4A2C1812FF8
:1017C0000E9495130E94B4139CC18D2D8F7020EF41
:1017D000D22290E2D91611F4182F03C0182F1295B7
:1017E000107FCC2021F0E1E0CE1609F512C0FF20D9
:1017F00041F0002331F1013021F5812F0E949F1328
:1018000080C1002319F0013009F47BC10E94A213AA
:1018100002C1FF2041F0063008F073C10E947C1322
:10182000812379F0F8C0053008F06BC1F4C0FF20C7
:1018300061F0002331F0F501858180FF16C18F70C2
:101840008583812F0E94640A5CC1002309F4E3C0F0
:1018500017C18D2D837009F05EC0FF2009F051C1C2
:101860002C2D229526952770220F220F8C2D8F70FC
:10187000E82EFF2400E010E0022E04C0EE0CFF1C56
:10188000001F111F0A94D2F7C4FC05C060E070E08D
:1018900080E090E00FC06FE070E080E090E004C076
:1018A000660F771F881F991F2A95D2F7609570954C
:1018B00080959095D694D694F3E0DF224D2D50E09C
:1018C00041305105A9F0423051051CF4452B49F037
:1018D00018C14230510589F04330510509F011C15A
:1018E00013C06E297F29802B912B0E941B1309C1E5
:1018F0006E297F29802B912B0BC06E297F29802B8D
:10190000912B0E940A13FDC00E941B13C801B7014E
:101910000E942C13F6C090E0FF2011F49695879555
:10192000817009F4EEC02C2D229526952770220F88
:10193000220F8C2D8F70E82EFF2400E010E0022E85
:1019400004C0EE0CFF1C001F111F0A94D2F7C4FC48
:1019500005C060E070E080E090E00FC06FE070E0F4
:1019600080E090E004C0660F771F881F991F2A95BA
:10197000D2F76095709580959095D694D69423E093
:10198000D2224D2D50E041305105A9F04230510591
:101990001CF4452B49F0B5C04230510589F0433065
:1019A000510509F0AEC013C06E297F29802B912B01
:1019B0000E946E12A6C06E297F29802B912B0BC02E
:1019C0006E297F29802B912B0E945D129AC00E9464
:1019D0006E12C801B7010E947F1293C080EFC81633
:1019E000F1F08C1520F090EEC916D8F109C0E2EFA5
:1019F000CE1641F1CE1608F1F3EFCF1691F527C0C0
:101A00001C2D1F708D2D8F71FF2019F00E94CC129C
:101A100018CF0E94AC12812F0E945D0A72C0FF2075
:101A200021F0053008F06DC003C0063008F069C031
:101A30008D2D8F710E94901264C08D2D8F71FF20AB
:101A400029F119C08D2D8F71FF20A9F01FC0FF2033
:101A500029F08D2D8F710E94E81253C00E94F81258
:101A600050C0FF2059F0002321F08C2D0E94BE0AA7
:101A700048C08D2D8F710E94CC1243C0002321F0ED
:101A80008C2D0E946B0A3DC08D2D8F710E94AC126F
:101A900038C02FE0D222C5016C2D4D2D0E94DC13E1
:101AA0000E948E112EC08FE0D822C5016C2D4D2DC5
:101AB0000E94DF1326C089819A810E9409126C015D
:101AC0000E9408120E9407128D2D82958F7090E05F
:101AD0008830910509F4BDCE893091053CF48230FF
:101AE00091050CF451CE049764F46FCE8C309105BF
:101AF00081F28D3091051CF40A971CF06FCF0F977F
:101B000091F22A960FB6F894DEBF0FBECDBFCF91EB
:101B1000DF911F910F91FF90EF90DF90CF90BF90DA
:101B2000AF900895DF93CF93CDB7DEB72B970FB665
:101B3000F894DEBF0FBECDBF342F4F83252F5887BB
:101B400069877A878B87472F582FFE01319686E069
:101B5000DF011D928A95E9F76B8339832A834C83D1
:101B60005D83432F522F8D819E810E94CF102B9633
:101B70000FB6F894DEBF0FBECDBFCF91DF910895B1
:101B80000F931F930091380115C010E0F801EE0F7C
:101B9000FF1FE00FF11FEE0FFF1FE75CFE4F4081BC
:101BA000518162817381848195810E94140A0F5F43
:101BB0001F4F077080913701081739F71F910F9158
:101BC000089540913101509132016091330170913B
:101BD000340180913501909136010E94140A0895D4
:101BE0000F931F93CF93DF938091360182958F706F
:101BF00009F06DC080913301882309F468C06091B9
:101C00003801009137014091340150913501109114
:101C1000320170913101EA01C095D09555C041154E
:101C2000510509F44FC01F3F49F480E090E07F3F29
:101C300011F481E090E0882309F044C0262F30E0C1
:101C4000F901EE0FFF1FE20FF31FDF01AA0FBB1F09
:101C5000A75CBE4F11968C911197181799F58C912E
:101C6000781781F5EE0FFF1FE55CFE4F808188231A
:101C700049F513968D919C9114978417950718F048
:101C8000841B950B02C08C0F9D1F883C9105D0F4DE
:101C9000809136018F70806180933601F901EE0FDB
:101CA000FF1FE20FF31FEE0FFF1FE25CFE4F80816C
:101CB0008F708061808381E391E00E948D0B0E9490
:101CC000C00D05C06F5F6770601709F0A8CFDF9186
:101CD000CF911F910F910895DF92EF92FF920F9392
:101CE0001F93DF93CF93CDB7DEB76B970FB6F89402
:101CF000DEBF0FBECDBF8C01DC011296DC901297C7
:101D00004C9111965C9111971396ED90FC9014975D
:101D1000209134013091350160913201709131018F
:101D20002115310509F4DBC16F3F09F003C27F3F84
:101D300009F000C2D4C1E216F30640F0C701821BCD
:101D4000930B883C910508F0EEC008C020953095B3
:101D50002E0D3F1D283C310508F0E5C0809136016D
:101D6000807F09F095C06F3F09F0EAC17F3F09F01D
:101D7000E7C115C0741799F4DD2089F4809136010C
:101D80008F708061809336010E94E10D81E391E0C4
:101D90000E948D0B80913601F8018583BCC1FD82C4
:101DA000EC825A834983DB82DE011696FE0131966E
:101DB00085E001900D928150E1F76885DE011B9668
:101DC000FE01369685E001900D928150E1F72C8559
:101DD0003B858E859F85892B09F451C02F3F09F0E3
:101DE000B3C13F3F09F0B0C14AC0FD82EC825A83C3
:101DF0004983DB82DE011B96FE01319685E001906E
:101E00000D928150E1F7FC847B856D8580913801CE
:101E1000909137011FC0282F30E0F901EE0FFF1F0E
:101E2000E20FF31FDF01AA0FBB1FA75CBE4F119685
:101E30008C911197F81651F48C91781739F4EE0FB4
:101E4000FF1FE55CFE4F80816817C9F42F5F3F4F8D
:101E5000822F87708917F9F68DC19F7059F044233E
:101E600049F459C19F7031F0D80115968C91807F4B
:101E700009F451C1405E483008F44DC148C1DD202D
:101E800009F449C18091360181608093360143C1D4
:101E90006F3F09F05DC17F3F09F05AC114C074174C
:101EA00091F4DD2081F480913601F8018583C80129
:101EB0000E948D0BA1E3B1E0F80186E001900D9244
:101EC0008150E1F720C15A83498389819A810E9418
:101ED000240A882309F41BC1DD2009F418C13091BC
:101EE0003601832F82958F7090E002979CF090913D
:101EF000320120913101FE01709686E0DF011D92D2
:101F00008A95E9F7998B288BFC8AEB8A3D8BCF0168
:101F10000E948D0BA1E3B1E0F80186E001900D92E3
:101F20008150E1F7EEC080913601807FA9F47E2DCB
:101F3000FD82EC825A834983DB826D2D8D810E9464
:101F4000050A01E311E0C8010E948D0B86E0F8014B
:101F500011928A95E9F7C0C06F3F09F0FDC07F3F3D
:101F600009F0FAC014C0741791F4DD2081F4809157
:101F70003601D80115968C93C8010E948D0BE1E3C0
:101F8000F1E086E0DF011D928A95E9F7BEC05A8331
:101F9000498389819A810E94240A882309F4B7C061
:101FA000DD2009F4B4C030913601832F82958F7003
:101FB00090E002979CF09091320120913101FE0156
:101FC000769686E0DF011D928A95E9F79F8B2E8B2E
:101FD000FA8EE98E3B8FCF010E948D0BA1E3B1E019
:101FE000F80186E001900D928150E1F78AC06F3FC1
:101FF00009F0B6C07F3F09F0B3C071C0E216F30626
:1020000040F0C701821B930B883C910508F053C038
:1020100008C0209530952E0D3F1D283C310508F055
:102020004AC0DD2009F473C06F3F09F09FC07F3FB5
:1020300009F09CC029C0741739F59091360190FDC4
:102040001AC0892F82958F70B1F0F80195838F3077
:1020500031F08F5F8295807F9F70982B9583C801A8
:102060000E948D0BA1E3B1E0F80186E001900D9292
:102070008150E1F748C0A1E3B1E0F80186E00190AA
:102080000D928150E1F741C05A83498389819A8139
:102090000E94240A882349F0A1E3B1E0F80186E018
:1020A00001900D928150E1F72CC080913601816042
:1020B000809336012CC07E2DFD82EC825A834983A9
:1020C000DB826D2D8D810E94050AE1E3F1E086E05F
:1020D000DF011D928A95E9F70E94E10D1CC0DD2009
:1020E000B1F05A83498389819A810E94240A882306
:1020F00071F0A1E3B1E0F80186E001900D9281500A
:10210000E1F70E94F00D0E94E10D81E005C0C801D9
:102110000E948D0BFACF80E06B960FB6F894DEBF6D
:102120000FBECDBFCF91DF911F910F91FF90EF9028
:10213000DF90089580913301882309F458CFFBCDB7
:10214000651709F02CCE16CE613009F498CE4DCE2D
:10215000651709F0B8CEA3CE651709F018CF03CFE5
:1021600080913301882309F0BACF48CF651709F071
:102170008BCF61CF5A83498389819A810E9409124A
:10218000482F892F82958F70282F30E0223031051B
:102190000CF463CE243031050CF0B9CF63CE0F932D
:1021A0001F93DF93CF93CDB7DEB72C970FB6F8947C
:1021B000DEBF0FBECDBF4F83588769877A878B8775
:1021C0009C878E01095F1F4FC8010E946C0E8823F7
:1021D000D9F028853F818A859B85892B09F46BC0BE
:1021E0002F3F49F480E090E03F3F11F481E090E020
:1021F000882309F060C04F81588569857A858B8571
:102200009C850E94140A57C0DE011196F80186E0F1
:1022100001900D928150E1F7F981EA814C815D8155
:102220004115510509F447C0EF3F09F04CC0FF3F8D
:1022300009F049C040C0F983EA835D834C83F9010A
:10224000EE0FFF1FE20FF31FEE0FFF1FE75CFE4FC5
:10225000DE01119686E00D9001928150E1F76093C6
:1022600037010E94C00D27C0919FC0011124875CD7
:102270009E4F0E946C0E882309F445C0809138015E
:1022800090E0FC01EE0FFF1FE80FF91FEE0FFF1F9C
:10229000E75CFE4F40815181628173818481958129
:1022A0000E94140A8091380190E001968770907026
:1022B0008093380101C016E0909138018091370178
:1022C000981791F620C080913701282F30E02F5FBA
:1022D0003F4FB901677070702150304080913801D4
:1022E00090E06817790709F0A6CF0E94580A10926B
:1022F000370110923801E1E3F1E086E0DF011D9241
:102300008A95E9F7D8CF2C960FB6F894DEBF0FBEAA
:10231000CDBFCF91DF911F910F910895CF92DF92A2
:10232000EF92FF921F93CF93DF93EC01009709F494
:1023300066C010E090EAC92E9FE0D92E81E0E82E19
:10234000F12CFE0121969491943748F4943008F0D2
:1023500044C0913079F0923009F051C01BC09537DC
:1023600009F437C0953750F1892F8458803708F029
:1023700046C037C0FE0121969491892F805E883037
:1023800060F597708E2D01C0880F9A95EAF70E942C
:102390008F130FC0FE0121969491892F805E8830A3
:1023A00058F497708E2D01C0880F9A95EAF70E9415
:1023B00095130E94B41319C0892F15C0FE012491F2
:1023C00004C0C6010197F1F721502223D1F72196CD
:1023D0000CC0FE012196149108C0892F0E94BE0AEC
:1023E00004C0892F8F770E946B0A212F04C0C60179
:1023F0000197F1F72150222309F4A3CFF8CFDF9101
:10240000CF911F91FF90EF90DF90CF9008950895A6
:102410000895CF92DF92EF92FF920F931F93CF9385
:10242000DF936C01E0906901F0906A0100916B010B
:1024300010916C0180916D0190916E01A0916F01DE
:10244000B0917001E82AF92A0A2B1B2BCFE1D0E0CA
:10245000D801C7010C2E04C0B695A795979587950E
:102460000A94D2F781709070892B41F08C2FB601BD
:102470000E94E0139C018130910551F421978FEF68
:10248000CF3FD80729F780E0B6010E94E0139C01F6
:10249000822FDF91CF911F910F91FF90EF90DF90EE
:1024A000CF90089560936D0170936E0180936F01DA
:1024B000909370010E94510A08959B01AC016091B4
:1024C0006D0170916E0180916F0190917001622792
:1024D0007327842795270E94521208959B01AC010F
:1024E00060916D0170916E0180916F01909170010A
:1024F00062237323842395230E94521208959B0123
:10250000AC0160916D0170916E0180916F019091AD
:102510007001622B732B842B952B0E94521208950D
:1025200021E030E040E050E004C0220F331F441FA0
:10253000551F8A95D2F780916D0190916E01A091FF
:102540006F01B0917001282739274A275B27CA01FC
:10255000B9010E945212089521E030E040E050E0BD
:1025600004C0220F331F441F551F8A95D2F72095B0
:1025700030954095509580916D0190916E01A0919C
:102580006F01B0917001282339234A235B23CA01CC
:10259000B9010E945212089521E030E040E050E07D
:1025A00004C0220F331F441F551F8A95D2F7809114
:1025B0006D0190916E01A0916F01B0917001282B77
:1025C000392B4A2B5B2BCA01B9010E945212089584
:1025D00021E030E040E050E004C0220F331F441FF0
:1025E000551F8A95D2F7CA01B9010E945212089567
:1025F00060E070E080E090E00E94521208956093E5
:10260000690170936A0180936B0190936C010E9441
:10261000510A08959B01AC016091690170916A01B2
:1026200080916B0190916C01622773278427952715
:102630000E94FF1208959B01AC01609169017091A5
:102640006A0180916B0190916C0162237323842352
:1026500095230E94FF1208959B01AC0160916901CE
:1026600070916A0180916B0190916C01622B732BC8
:10267000842B952B0E94FF120895382FA0910C01F6
:10268000B0910D01FD0120E08FEF9281931791F041
:102690008F3F19F4992309F4822F2F5F319626304A
:1026A000A1F78F3F39F0992787FD9095A80FB91FA3
:1026B00012963C930895982F20E030E0E0910C01B1
:1026C000F0910D01E20FF31F8281891709F4128244
:1026D0002F5F3F4F2630310589F7089581E090E064
:1026E000E0910C01F0910D01E80FF91F10820196A5
:1026F00088309105A9F70895809179010895909106
:102700007901982B909379010895809590917901A2
:1027100098239093790108951092790108959091EA
:102720007B01982B90937B010895809590917B017C
:10273000982390937B01089510927B0108958093D4
:102740007A01089510927A010895E0910C01F091B8
:102750000D0120E091E0818181112F5F9F5F319613
:102760009830C9F7822F0895E0910C01F0910D0186
:10277000809179018083E0910C01F0910D018081BD
:1027800090917B01892B808390917A01992369F044
:10279000E0910C01F0910D018081892B80830E94D2
:1027A000A513882311F00E94A21380910C0190912F
:1027B0000D010E942A09089580E090E0089508958F
:1027C0000E945101282F805C803220F4822F0E94C9
:1027D000620108952D3B50F4283A28F5253AB0F4CB
:1027E000243080F4213009F09EC08CC0283E30F4A3
:1027F000203E40F42F3B09F096C087C0203F08F4EC
:1028000092C07DC0822F90E09C018FC0253A19F4C0
:1028100021E830E48AC0263A19F023E830E485C084
:1028200022E830E482C0283A19F422EE34E47DC074
:10283000293A19F429EE34E478C02A3A19F42AEE38
:1028400034E473C02B3A19F425EB34E46EC02C3A0F
:1028500019F426EB34E469C02B3B19F423EB34E480
:1028600064C02C3B19F424EB34E45FC02D3A19F416
:1028700027EB34E45AC0203B19F42CEC34E455C067
:102880002E3A19F42DEC34E450C02F3A19F423E811
:1028900035E44BC0213B19F42AE835E446C0223B1D
:1028A00019F422E935E441C0233B19F424E935E465
:1028B0003CC0243B19F421E236E437C0253B19F42F
:1028C00023E236E432C0263B19F424E236E42DC07C
:1028D000273B19F425E236E428C0283B19F426E208
:1028E00036E423C0293B19F427E236E41EC02A3B14
:1028F00019F020E034E419C02AE236E416C030E0D2
:10290000306513C021E030E010C00E94580A84EF07
:1029100091E020E931E0F9013197F1F70197D9F71A
:102920000E943B1502C020E030E0C901089580916B
:102930008601843009F110927D0120E488E190E065
:102940000FB6F894A895809360000FBE20936000A6
:1029500083B7817F846083BF83B7816083BF7894AE
:10296000889583B78E7F83BF88E10FB6F8948093F4
:102970006000109260000FBE0895089508951F92A0
:102980000F920FB60F9211248F939F93AF93BF9323
:1029900080917D01882399F480917E0190917F013F
:1029A000A0918001B09181014196A11DB11D80933C
:1029B0007E0190937F01A0938001B0938101BF912C
:1029C000AF919F918F910F900FBE0F901F90189510
:1029D0000E94580A08951F930E94BD140E949D01F1
:1029E0000E94BE1410E0812F0E947401882311F010
:1029F00081E004C01F5F1630B1F780E01F91089599
:102A000082E084BD93E095BD9AEF97BD80936E0000
:102A100008958FB7F89420917E0130917F01409105
:102A20008001509181018FBFC90108951F920F92BB
:102A30000FB60F9211248F939F93AF93BF93809102
:102A40007E0190917F01A0918001B091810101965A
:102A5000A11DB11D80937E0190937F01A093800101
:102A6000B0938101BF91AF919F918F910F900FBE55
:102A70000F901F9018950E941906F89480E29EE42A
:102A800020E931E0F9013197F1F70197D9F787E0B3
:102A900090EBA7E0B0EB80938F0190939001A0930F
:102AA0009101B09392012CE088E190E00FB6F89488
:102AB000A895809360000FBE20936000FFCFF8942C
:022AC000FFCF46
:0E2AC20005015302C30256028D025702710134
:00000001FF
