:100000000C94BC030C9400040C9400040C940004A5
:100010000C9400040C9400040C9400040C94000450
:100020000C9400040C9400040C94520C0C940004E6
:100030000C94BA1B0C9400040C9400040C9400045F
:100040000C9400040C9400040C9400040C94000420
:100050000C9400040C94141C0C9400040C940004E4
:100060000C9400040C9400040C9400040C94000400
:100070000C9400040C9400040C9400040C940004F0
:100080000C9400040C9400040C9400040C940004E0
:100090000C9400040C9400040C9400040C940004D0
:1000A0000C9400040C9400040C940004A405A7050F
:1000B000AA05AD05B005B305B605B905BC05BF0574
:1000C000C205C505C805CB05CE05D105D405F1A1EE
:1000D00029353A3B3C3D3E3F40414243444546473B
:1000E000481E1F20212223242526272D2E002A49A1
:1000F0004A4B2B141A0815171C180C12132F3031E9
:100100004C4D4EC0041607090A0B0D0E0F33340078
:1001100028000000E1001D1B0619051110363738B4
:1001200000E5005200E0E3E2000000002C0000E6E1
:10013000E765E450514F0101010101010101010195
:10014000010101010101A6010101010101010101FA
:10015000A8AAA90001010101010101010101010198
:1001600001ADAEACABAF0101010101010101010123
:100170000101010101000100000001000101B201C3
:10018000010101010101003900010001010100002C
:100190000000010000010101010101012530325878
:1001A0003A20253033326C620A000A722F63203005
:1001B0003132333435363738394142434445460AC3
:1001C000000D0A002530325800626F756E6365219C
:1001D0003A20005B735D004B6579626F6172642049
:1001E00073746172742E0A0055534220636F6E66F9
:1001F0006967757265642E0A005B575D005B535D2D
:10020000005B525D005B445D005B435D00050109DE
:1002100006A101050719E029E715002501950875D4
:1002200001810295017508810105081901290595CB
:1002300005750191029501750391010507190029C2
:10024000FF150025FF950675088100C0050109808E
:10025000A101850216010026B7001A01002AB70085
:10026000751095018100C0050C0901A101850316D7
:100270000100269C021A01002A9C0275109501813A
:1002800000C00631FF0974A1010975150025FF950D
:1002900020750881020976150025FF9520750891C3
:1002A00002C01201100100000008EDFE57600100BD
:1002B0000102000109025B00030100A032090400F1
:1002C000000103010100092111010001223F000783
:1002D00005810308000A0904010001030000000968
:1002E00021110100012236000705820308000A09D6
:1002F0000402000203000000092111010001222074
:100300000007058303200001070503032000010403
:100310000309040E0374002E006D002E006B002EE6
:1003200000000010035000680061006E0074006F50
:10033000006D0000000A002530325820006B6579FE
:10034000626F6172645F7265706F72743A20000A46
:100350000025303258006B6579626F6172645F739B
:1003600065745F6C65643A2000646F6E652E0A00E8
:10037000626F6F676D61676963207363616E3A20B6
:100380002E2E2E20003F0074696D65725F636F75BD
:100390006E743A202530346C580A006B6579626FB0
:1003A0006172645F69646C653A2025580A006B6568
:1003B00079626F6172645F70726F746F636F6C3AB1
:1003C0002025580A00686F73745F6B6579626F61EE
:1003D00072645F6C65647328293A2025580A000A04
:1003E000092D20537461747573202D0A004743430F
:1003F0003A20342E332E33204156522D4C4942435D
:100400003A20312E362E37204156525F4152434812
:100410003A20617672350A004F5054494F4E533A94
:10042000204C55464120424F4F544D4147494320AF
:1004300045585452414B455920434F4E534F4C451C
:1004400020434F4D4D414E44203531320A00425534
:10045000494C443A20756E6B6E6F776E20283136AA
:100460003A30383A30302044656320313120323020
:100470003135290A005649443A20307846454544EA
:1004800028742E6D2E6B2E29205049443A20307846
:1004900036303537285068616E746F6D29205645A7
:1004A000523A203078303030310A00444553433AD4
:1004B00020742E6D2E6B2E206B6579626F617264D5
:1004C000206669726D7761726520666F7220506870
:1004D000616E746F6D0A000A092D2056657273698A
:1004E0006F6E202D0A000A6D6F7573653A206F6676
:1004F000660A000A6D6F7573653A206F6E0A000A0E
:100500006B6579626F6172643A206F66660A000AF1
:100510006B6579626F6172643A206F6E0A000A6DD2
:1005200061747269783A206F66660A000A6D6174B8
:100530007269783A206F6E0A000A64656275673ADC
:10054000206F6E0A000A64656275673A206F6666FE
:100550000A000A0A626F6F746C6F616465722E2EF6
:100560002E2000433E20006565636F6E6669673A22
:100570000A000A002575002E6E6B726F3A20000A81
:10058000002575002E737761705F6261636B736C19
:100590006173685F6261636B73706163653A2000C9
:1005A0000A002575002E737761705F67726176654A
:1005B0005F6573633A20000A002575002E6E6F5F39
:1005C0006775693A20000A002575002E73776170FF
:1005D0005F72616C745F726775693A20000A00256A
:1005E00075002E737761705F6C616C745F6C6775FA
:1005F000693A20000A002575002E636170736C6FE4
:10060000636B5F746F5F636F6E74726F6C3A200020
:100610000A002575002E737761705F636F6E7472C8
:100620006F6C5F636170736C6F636B3A20000A00DC
:1006300025303258006B65796D61705F636F6E664F
:1006400069672E7261773A20000A002575002E6DC9
:100650006F7573653A20000A002575002E6B657969
:10066000626F6172643A20000A002575002E6D6188
:10067000747269783A20000A002575002E656E6153
:10068000626C653A20000A002530325800646562C9
:1006900075675F636F6E6669672E7261773A2000D7
:1006A0000A0025750064656661756C745F6C61791C
:1006B00065723A20000A092D204D61676963202D7B
:1006C0000A643A0964656275670A783A0964656282
:1006D0007567206D61747269780A6B3A09646562A6
:1006E0007567206B6579626F6172640A6D3A09649F
:1006F00065627567206D6F7573650A763A09766570
:100700007273696F6E0A733A097374617475730A50
:10071000633A09636F6E736F6C65206D6F64650A71
:10072000302D343A096C61796572302D34284631A8
:10073000302D4634290A506175733A09626F6F741F
:100740006C6F616465720A653A09656570726F6DF8
:100750000A000A092D20436F6E736F6C65202D0A05
:100760004553432F713A09717569740A004C256429
:100770000A00433E20003F0011241FBECFEFDAE005
:10078000DEBFCDBF04B603FE24C08091CC019091A2
:10079000CD01A091CE01B091CF018750904BA740E1
:1007A000B04BB9F41092CC011092CD011092CE0151
:1007B0001092CF0114BE84B7877F84BF88E10FB643
:1007C000F89480936000109260000FBEE0E0FFE3B9
:1007D000099511E0A0E0B1E0E8E3F4E402C005907F
:1007E0000D92AE30B107D9F711E0AEE0B1E001C033
:1007F0001D92AC3CB107E1F70E947F080C941A22CD
:100800000C940000FF93EF93E0910E01F0910F0123
:10081000309709F00995EF91FF910895FC018591BA
:10082000803011F0EFDFFBCF0895FF27E0E230E2E8
:1008300047FF0CC0419597FF09C0EDE260957095A8
:1008400080959095611D711D811D911D27FF02C02E
:10085000219530E350E2AA27660F771F881F991F62
:10086000AA1FA41710F0A41B63955A95A9F7AA30E4
:1008700008F0A95FA05DAF93F3956115710581053F
:10088000910541F7ED3211F4EF93F395F21718F457
:100890003F93F395FBCF8F91B5DFFA95E1F708957C
:1008A000E991F9918591803021F0853219F0AADF24
:1008B000F9CF089520E0E89455915532C1F35033B3
:1008C00011F4689455915A3348F4505390F3220F21
:1008D000022E220F220F200D250FF4CF0EF42195AA
:1008E00089919991533619F3533729F1533559F1B9
:1008F000BC0188279927E8945C3621F48991999165
:1009000068945591543639F446EF7EF077FF0DC068
:100910008FEF9FEF0AC055374AE039F0583540E174
:1009200021F0523642E009F00895FF93EF937DDF06
:10093000EF91FF91B7CFFF93EF93FC01819180304E
:10094000B9F360DFFBCFFF93EF9368DFF1CFDF9365
:10095000CF93CDB7DEB72596A3DFCF91DF91089572
:10096000282F862F90E0223080F4E1E17E9FF00175
:100970001124E80FF91F86E6289FC0011124E80F13
:10098000F91FE053FF4F84910895E1E17E9FF0014C
:100990001124E80FF91FE053FF4F84910895803C24
:1009A00029F4EEECF0E02591349102C020E030E033
:1009B000C9010895E82FF0E0EE0FFF1FEE0FFF1FB3
:1009C000E05FFE4F6081718182819381089587B1DC
:1009D000806C87B988B1806C88B98AB18FEF8AB989
:1009E0009BB18BB96E9A769A80B3836F80BB81B3CB
:1009F000836F81BB089585B7806885BF85B78068A0
:100A000085BF0E94E70484B1807C84B985B18F637F
:100A100085B98091800089628093800080918100F7
:100A20008C60809381008AEF90E090938B0080939C
:100A30008A0090938D0080938C0084B1806C84B97F
:100A400085B18F7385B980E090E0FC01E05FFE4FD7
:100A50001082118212821382FC01E85DFE4F108227
:100A600011821282138204968831910571F70895DC
:100A7000EF92FF920F931F93CF93DF938AEA91E057
:100A80000E940E0400E111E0C0E0D0E02CE9E22E6B
:100A900021E0F22ED8016D917D918D919D918D0176
:100AA0000E94681BEDB7FEB738970FB6F894FEBFEB
:100AB0000FBEEDBF3196ADB7BEB71296FC92EE9267
:100AC0001197D383C28364837583868397830E943F
:100AD000A7042196EDB7FEB738960FB6F894FEBF7F
:100AE0000FBEEDBFC630D105A9F6DF91CF911F91A2
:100AF0000F91FF90EF9008952F923F924F925F9247
:100B00006F927F928F929F92AF92BF92CF92DF921D
:100B1000EF92FF920F931F93CF93DF93AA24BB24EE
:100B2000F1E02F2E312C412C512CE7E06E2EEA2DD6
:100B3000F0E0E131F105D0F5EA5AFF4FEE0FFF1F6B
:100B40000590F491E02D0994559A5D982FC03F9A35
:100B500047982CC03E9A469829C0549A5C9826C063
:100B6000509A589823C06E9A769820C0809A889898
:100B70001DC0819A89981AC0849A8C9817C0859A4A
:100B80008D9814C0869A8E9811C0879A8F980EC03F
:100B9000579A5F980BC0569A5E9808C0519A599818
:100BA00005C0529A5A9802C0539A5B9880E18A9580
:100BB000F1F783B11C9902C022E001C020E01B992B
:100BC00002C064E001C060E01A9902C058E001C0B0
:100BD00050E0199902C040E101C040E0189902C0FC
:100BE00030E201C030E090E075E0969587957A9507
:100BF000E1F7A1E0B0E08A279B278170282B262B04
:100C0000252B242B232B7A2C720161010A2C04C082
:100C1000CC0CDD1CEE1CFF1C0A94D2F708E211E09C
:100C2000C0E0D0E0822E9924F80140815181628198
:100C30007381DB01CA01072C04C0B695A79597956F
:100C400087950A94D2F78170907094010C2E02C09F
:100C5000359527950A94E2F7217030708217D9F103
:100C60004C255D256E257F25D8014D935D936D93B1
:100C70007C93139780910001882359F18091B701EB
:100C800080FF04C089EC91E00E940E048091B701BE
:100C900080FF17C000D000D0EDB7FEB7319684ECCE
:100CA00091E0ADB7BEB712969C938E931197809149
:100CB0000001828313820E94A7040F900F900F906F
:100CC0000F908091B70180FF04C081EC91E00E94F9
:100CD0000E046092000121960C5F1F4FC630D105B3
:100CE00009F0A2CF0E94E7040894A11CB11C91E175
:100CF000A916B10409F01BCF80910001882309F4E3
:100D00006AC0815080930001882329F080EA9FE027
:100D10000197F1F760C08091280190912901A0917D
:100D20002A01B0912B018093100190931101A0939F
:100D30001201B093130180912C0190912D01A0918B
:100D40002E01B0912F018093140190931501A0936F
:100D50001601B09317018091300190913101A0915B
:100D60003201B09133018093180190931901A0933F
:100D70001A01B0931B018091340190913501A0912B
:100D80003601B091370180931C0190931D01A0930F
:100D90001E01B0931F018091380190913901A091FB
:100DA0003A01B0913B018093200190932101A093DF
:100DB0002201B093230180913C0190913D01A091CB
:100DC0003E01B0913F018093240190932501A093AF
:100DD0002601B093270181E0DF91CF911F910F9100
:100DE000FF90EF90DF90CF90BF90AF909F908F904B
:100DF0007F906F905F904F903F902F90089581FF6C
:100E000003C0269A2E9A02C026982E9882FF03C00D
:100E1000279A2F9A089527982F9808958091440132
:100E20008F5F8093440162E30E94DD219923A9F53D
:100E30001092440180914201882379F18091C3018D
:100E4000843049F59091E9008091EC0080FD02C06A
:100E500080E001C080E89F70982B83E08093E900D8
:100E60008091EB0080FF14C08091EE0087FD03C0ED
:100E70000FC01092F1008091E80085FDFACF8091BB
:100E8000E80080FF05C08091E8008E778093E8003D
:100E90009F709093E9001092420108958091410162
:100EA00008950895682F8FB7F894109242018FBF6C
:100EB0008091C301843011F08FEF08959091E90083
:100EC0008091EC0080FD02C080E001C080E8392FF5
:100ED0003F70382B83E08093E9008091EB0080FF26
:100EE00043C08091EE0087FF3FC08091430188237B
:100EF00021F08091E80085FF37C01092430125E082
:100F000040EA5FE012C08091C301843069F58091AE
:100F1000EB0085FD29C0222321F481E08093430169
:100F200023C02150CA010197F1F78091E80085FFA5
:100F3000EACF6093F1008091E80085FD0AC08091BE
:100F4000E80080FFFCCF8091E8008E778093E80076
:100F500006C09FB7F89481E0809342019FBF3F7025
:100F60003093E90080E008953F703093E9008FEFFF
:100F70000895DF93CF9300D00F92CDB7DEB7AC01C9
:100F80008091C301843029F582E08093E9002FEF3E
:100F900095ED05C0892F8A95F1F7222329F08091DC
:100FA000E800215085FFF6CF8091E80085FF11C051
:100FB0005B834A8383E08983CE01019663E070E01E
:100FC00040E050E00E94F20A8091E8008E77809322
:100FD000E8000F900F900F90CF91DF910895DF936D
:100FE000CF9300D00F92CDB7DEB7AC018091C30193
:100FF000843029F582E08093E9002FEF95ED05C05C
:10100000892F8A95F1F7222329F08091E800215059
:1010100085FFF6CF8091E80085FF11C05B834A838E
:1010200082E08983CE01019663E070E040E050E009
:101030000E94F20A8091E8008E778093E8000F907A
:101040000F900F90CF91DF9108950F931F93182F5A
:10105000092F8091C301843061F581E08093E9001C
:101060009FEF25ED05C0822F8A95F1F7992329F08E
:101070008091E800915085FFF6CF8091E80085FFD0
:1010800018C0812F902F68E070E040E050E00E948F
:10109000F20A8091E8008E778093E800A5E4B1E041
:1010A000212F302FC901FC0188E001900D92815061
:1010B000E1F71F910F9108958DEF91E00E940E04CA
:1010C000089581E092E00E940E04089585E092E088
:1010D0000E940E041092C201089589E092E00E94DD
:1010E0000E048091C201882349F40E94D20B0E9411
:1010F000330C8091E20084608093E200089584B70D
:10110000877F84BF88E10FB6F894809360001092C7
:1011100060000FBE80E090E020E80FB6F8942093C6
:101120006100809361000FBE0E94380F0E94D20BB5
:101130000E94330C8091E20084608093E20082E59B
:1011400097E00E942E1B789402C00E948F0E80911F
:10115000C3018430D1F788EE91E00E940E040E9412
:101160003C1082E091E00E94A50E87ED91E00E9484
:101170000E0410C083ED91E00E940E040E94921BA9
:101180008091C101882331F00E94E61B882311F071
:101190000E94070A8091C301853061F30E946D0FA0
:1011A0000E948F0EF7CF8091C501833009F455C09E
:1011B000843030F4813071F0823009F0AFC096C0D5
:1011C0008A3009F483C08B3009F468C0893009F093
:1011D000A5C020C08091C401813A09F09FC08091D0
:1011E000E800877F8093E8008091C8019091C90151
:1011F000892B21F485E491E068E003C080E090E071
:1012000060E070E00E941D0A8091E8008B77809377
:10121000E80008958091C401813209F07FC0809177
:10122000C8019091C901892B09F078C08091E8002C
:10123000877F8093E80005C08091C301882309F46B
:101240006DC08091E80082FFF7CF8091F10080931C
:1012500041018091E8008B771CC08091C401813AE4
:1012600009F05CC08091C8019091C901892B09F0F7
:1012700055C08091E800877F8093E8008091E80066
:1012800080FFFCCF809101018093F1008091E80004
:101290008E778093E8000E947F0B08958091C401AF
:1012A0008132E1F58091C8019091C901892BB1F596
:1012B0008091E800877F8093E8000E947F0B8091F7
:1012C000C601809301010E949E1008958091C4017F
:1012D000813221F58091E800877F8093E8000E94A9
:1012E0007F0B8091C7018093400108958091C401D4
:1012F000813AA1F48091E800877F8093E800809193
:10130000E80080FFFCCF809140018093F100809144
:10131000E8008E778093E8000E947F0B089581E0BB
:1013200061EC42E00E94470B82E061EC42E00E94E7
:10133000470B83E061EC42E20E94470B089589EF7E
:1013400091E00E940E040E94E31B0895DA0193309D
:10135000C1F0943030F4913051F0923009F04FC028
:101360000BC0913221F1923209F049C032C0E2EA59
:10137000F2E022E130E047C0E4EBF2E02BE530E0C0
:1013800042C0813051F0813020F0823009F037C006
:1013900008C0EFE0F3E0849107C0E3E1F3E084915B
:1013A00003C0E3E2F3E08491282F30E02CC06130E9
:1013B00041F0613018F0623011F508C0E6ECF2E05F
:1013C00002C0EFEDF2E029E030E01DC0E8EFF2E00E
:1013D000FACF613051F0613018F0623081F40AC008
:1013E000EDE0F2E02FE330E00EC0ECE4F2E026E3C3
:1013F00030E009C0E2E8F2E020E230E004C0E0E0E2
:10140000F0E020E030E0ED93FC93C901089580E125
:1014100089BD82E189BD09B400FEFDCF8091D8006D
:101420008F7D8093D8008091E00082608093E000FF
:101430008091E00081FDFCCF08959C014091CA019C
:101440005091CB014617570718F4F90190E043C0BB
:101450006115710511F0AB01F8CF8091E8008E772E
:101460008093E80040E050E0F0CF8091C3018823F2
:1014700009F447C0853009F446C08091E80083FD37
:1014800044C08091E80082FD36C08091E80080FF72
:1014900022C08091F3009091F200782F60E0292F14
:1014A00030E0262B372B07C081918093F10041500B
:1014B00050402F5F3F4F4115510519F0283031053D
:1014C00098F390E02830310509F491E08091E8002C
:1014D0008E778093E8004115510539F6992329F656
:1014E0000AC08091C301882361F0853061F080914A
:1014F000E80083FD0AC08091E80082FFF2CF80E01F
:10150000089582E0089583E0089581E008959C01A4
:101510004091CA015091CB014617570718F4F901C1
:1015200090E044C06115710511F0AB01F8CF8091D6
:10153000E8008E778093E80040E050E0F0CF8091A3
:10154000C301882309F448C0853009F447C080915D
:10155000E80083FD45C08091E80082FD37C080919E
:10156000E80080FF23C08091F3009091F200782F73
:1015700060E0292F30E0262B372B08C08491809320
:10158000F1003196415050402F5F3F4F41155105BA
:1015900019F02830310590F390E02830310509F436
:1015A00091E08091E8008E778093E8004115510525
:1015B00031F6992321F60AC08091C301882361F096
:1015C000853061F08091E80083FD0AC08091E800D9
:1015D00082FFF2CF80E0089582E0089583E00895CD
:1015E00081E00895BF92CF92DF92EF92FF920F9326
:1015F0001F93CF93DF93182F092F7B016A010E945D
:10160000A00BB82E8823C1F5812F902F9C01E901F2
:10161000C114D10439F0F60180819181E81AF90AE8
:10162000C80FD91F00E010E024C08091E80085FDBC
:1016300018C08091E8008E778093E8000E948F0E9A
:10164000C114D10449F0F60180819181800F911F6E
:101650009183808385E011C00E94A00B882349F00C
:101660000CC089918093F1000894E108F1080F5FA4
:101670001F4FE114F104C9F68B2DDF91CF911F911B
:101680000F91FF90EF90DF90CF90BF900895382F8B
:10169000282F2EC0822F8F708093E900231721F40A
:1016A000762F942F50E006C07091EC009091ED00E1
:1016B0005091F00091FF1BC08091EB008E7F8093D2
:1016C000EB008091ED008D7F8093ED008091EB0029
:1016D00081608093EB007093EC009093ED00509349
:1016E000F0008091EE0087FD02C080E008952F5F3A
:1016F000273080F23F703093E90081E008958091B7
:10170000C40188239CF404C08091C3018823B9F0EC
:101710008091E80082FFF8CF8091E8008B7780937A
:10172000E80008958091C301882349F08091E80082
:1017300080FFF8CF8091E8008E778093E8000895CD
:101740004091E4005091E50024E68091EC0080FF98
:1017500024C08091E80080FD1EC08091C3018823D1
:1017600011F482E00895853011F483E008958091AA
:10177000EB0085FF02C081E008958091E400909124
:10178000E5008417950709F3222311F484E00895F6
:101790002150AC01DACF80E008958091E80082FF0B
:1017A000DCCFF9CF0E94450C0E944D0CE0EEF0E03A
:1017B000808181608083A8EDB0E08C918F778C93DD
:1017C00019BCE7EDF0E080818E7F80838C918F7E65
:1017D0008C931092C2010895EF92FF920F931F9382
:1017E0000E94450C0E944D0C08ED10E0F80180812C
:1017F0008F77808380818068808380818F7D8083E4
:1018000019BC1092C3011092BF011092C101109235
:10181000C00180EEE82EF12CF70180818B7F808360
:10182000F80180818160808380E060E042E00E9476
:10183000470BE1EEF0E080818E7F8083E2EEF0E006
:10184000808181608083808188608083F7018081CE
:101850008E7F8083F8018081806180831F910F914A
:10186000FF90EF900895E8EDF0E080818F7E808317
:10187000E7EDF0E080818160808384E082BF81E0D9
:101880008093C2010E94EC0B0895E8EDF0E08081A6
:101890008E7F80831092E20008951092DA001092F9
:1018A000E10008951F920F920FB60F9211242F930B
:1018B0003F934F935F936F937F938F939F93AF93D8
:1018C000BF93EF93FF938091E10082FF0BC0809163
:1018D000E20082FF07C08091E1008B7F8093E100EE
:1018E0000E940E078091DA0080FF1FC08091D8000F
:1018F00080FF1BC08091DA008E7F8093DA00809198
:10190000D90080FF0DC080E189BD82E189BD09B4A5
:1019100000FEFDCF81E08093C3010E946D0805C0E9
:1019200019BC1092C3010E9466088091E10080FFFB
:1019300019C08091E20080FF15C08091E2008E7F87
:101940008093E2008091E20080618093E2008091C8
:10195000D80080628093D80019BC85E08093C301D1
:101960000E945C088091E10084FF30C08091E20019
:1019700084FF2CC080E189BD82E189BD09B400FEED
:10198000FDCF8091D8008F7D8093D8008091E100B9
:101990008F7E8093E1008091E2008F7E8093E20051
:1019A0008091E20081608093E2008091BF018823F2
:1019B00011F084E007C08091E30087FD02C081E060
:1019C00001C083E08093C3010E949F098091E100E0
:1019D00083FF24C08091E20083FF20C08091E1005A
:1019E000877F8093E10082E08093C3011092BF0162
:1019F0008091E1008E7F8093E1008091E2008E7FF4
:101A00008093E2008091E20080618093E20080E0B8
:101A100060E042E00E94470B0E946108FF91EF9155
:101A2000BF91AF919F918F917F916F915F914F91F6
:101A30003F912F910F900FBE0F901F9018951F93FD
:101A4000DF93CF93CDB7DEB7AC970FB6F894DEBF78
:101A50000FBECDBFE4ECF1E08091F100819321E075
:101A6000EC3CF207C9F70E94D3088091E80083FF9D
:101A70003EC18091C4013091C501353009F487C061
:101A8000363040F43130C9F1313070F0333009F084
:101A90002EC133C0383009F4F9C0393009F409C116
:101AA000363009F024C197C0803821F0823809F01F
:101AB0001EC108C09091C0018091C101882399F096
:101AC000926011C08091C8018F708093E90080916D
:101AD000EB0090E025E0969587952A95E1F7982F01
:101AE00091701092E9008091E800877F8093E80070
:101AF0009093F1001092F100D4C0882319F0823045
:101B000009F0F5C090E08F719070009721F0029776
:101B100009F0EDC00CC08091C601813009F0E7C02A
:101B20001092C101333069F58093C1012AC08091C0
:101B3000C601882331F52091C8012F7009F4D7C060
:101B40002093E9008091EB0080FF1BC0333021F42B
:101B50008091EB00806213C08091EB0080618093E4
:101B6000EB0081E090E002C0880F991F2A95E2F710
:101B70008093EA001092EA008091EB0088608093E5
:101B8000EB001092E9008091E800877F8DC08823E8
:101B900009F0ADC01091C6011F778091E3008078F5
:101BA000812B8093E3008091E800877F8093E80099
:101BB0000E947F0B8091E80080FFFCCF8091E300C2
:101BC00080688093E300112311F482E001C083E078
:101BD0008093C3018CC08058823008F088C0809107
:101BE000C6019091C70123E08C3D920709F034C0F3
:101BF00083E08C838AE28B837FB7F894DE011596AD
:101C00006EE040E050E011E2E62FF0E01093570064
:101C1000849140FF03C082958F706F5F8F70282F73
:101C200030E08A3018F0C901C79602C0C901C096D9
:101C30008D939D934F5F5F4F4431510529F77FBFCF
:101C40008091E800877F8093E800CE0103966AE2E6
:101C500070E00E941D0A14C06091C801AE014F5F80
:101C60005F4F0E94A609BC01009709F440C0809113
:101C7000E800877F8093E80089819A810E94870A23
:101C80008091E8008B778093E80031C0803879F547
:101C90008091E800877F8093E8008091BF01809366
:101CA000F1008091E8008E778093E8000E947F0B1E
:101CB0001EC08823E1F49091C6019230C0F4809157
:101CC000E800877F8093E8009093BF010E947F0B1C
:101CD0008091BF01882331F48091E30087FD02C029
:101CE00081E001C084E08093C3010E948F0980914C
:101CF000E80083FF0AC08091E800877F8093E800B6
:101D00008091EB0080628093EB00AC960FB6F89464
:101D1000DEBF0FBECDBFCF91DF911F9108951F93FE
:101D20008091C301882379F01091E9008091EC0043
:101D30001092E9008091E80083FF02C00E941F0D0D
:101D40001F701093E9001F910895909352018093A2
:101D500051010895E0915101F0915201309711F431
:101D600080E008950190F081E02D099508959C018F
:101D700080914F01909150012817390779F03093E5
:101D8000500120934F01E0915101F09152013097A1
:101D900029F00680F781E02DC901099508959C017D
:101DA00080914D0190914E012817390779F03093B9
:101DB0004E0120934D01E0915101F0915201309775
:101DC00029F00084F185E02DC90109950895EF926D
:101DD000FF920F931F93CF93DF93182F092FE0915A
:101DE0005101F09152013097D9F10280F381E02D39
:101DF00009958091B70182FF33C080FF04C08DE355
:101E000093E00E940E04812F902F9C01E90110E0C5
:101E100087E3E82E83E0F82E8091B70180FF14C09D
:101E200000D000D0EDB7FEB73196ADB7BEB7129671
:101E3000FC92EE9211978881828313820E94A704FC
:101E40000F900F900F900F901F5F2196183021F781
:101E50008091B70180FF04C085E393E00E940E04E7
:101E6000DF91CF911F910F91FF90EF90089508950A
:101E70000E94370F08951F93182F8091B70182FF9A
:101E800027C080FF04C086E593E00E940E04809185
:101E9000B70180FF15C000D000D0EDB7FEB7319676
:101EA00081E593E0ADB7BEB712969C938E931197E0
:101EB000128313820E94A7040F900F900F900F902F
:101EC0008091B70180FF04C08FE493E00E940E046C
:101ED000812F0E94FF061F9108952F923F924F92EB
:101EE0005F926F927F928F929F92AF92BF92CF92AA
:101EF000DF92EF92FF920F931F93DF93CF93CDB7B3
:101F0000DEB72A970FB6F894DEBF0FBECDBF0E9492
:101F10007C0594E5492E91E0592E66247724262CE1
:101F2000862D0E94DA045B016C01F201E080F180F1
:101F300002811381E626F72608271927E114F10408
:101F40000105110509F457C08091B70181FF02C056
:101F50000E94380588249924D801C701082C04C0A0
:101F6000B695A795979587950A94D2F7817090704A
:101F7000892BC9F10E94071C89822A82082C04C07F
:101F8000D694C794B794A7940A94D2F7B501617018
:101F900070706B8381609D838C83482D522D782FC8
:101FA0008D810E94B413F301EE0FFF1FEE0FFF1F90
:101FB000EC5AFE4F81E090E0A0E0B0E0082C04C0B5
:101FC000880F991FAA1FBB1F0A94D2F72081318165
:101FD0004281538182279327A427B5278083918349
:101FE000A283B38324C00894811C911CF1E18F1655
:101FF000910409F0B1CF0894611C711C84E090E059
:10200000480E591E96E06916710409F088CF0E94A7
:10201000071C2FEF2E832F8318868160782F9A87D5
:1020200089874FEF5FEF60E08A850E94B4131091BB
:1020300053010E94AA0E181731F00E94AA0E809335
:1020400053010E943B0F2A960FB6F894DEBF0FBED5
:10205000CDBFCF91DF911F910F91FF90EF90DF9057
:10206000CF90BF90AF909F908F907F906F905F9038
:102070004F903F902F9008950E94FE1B0E94FB04FA
:102080000E94A21C0895DF93CF9300D000D00F923E
:10209000CDB7DEB70F900F900F900F900F90CF91AC
:1020A000DF910895DF93CF9300D000D000D0CDB75B
:1020B000DEB726960FB6F894DEBF0FBECDBFCF9128
:1020C000DF9108950E942B18482F892F82958F70D9
:1020D000282F30E02C3031054CF42A3031056CF4D7
:1020E0002250304022303105C0F407C02C30310579
:1020F00051F02F30310589F406C0403E10F0403FCA
:1021000061F481E008959F70892F90E023E0969517
:1021100087952A95E1F78170089580E008950E94DF
:10212000C1190E9493190E94D91980E090E00E9481
:10213000B70E80E090E00E94CF0E08950E94B11982
:102140000E948F100895882321F00E94AA190E94EE
:10215000D9190895882321F00E94A4190E94D91941
:102160000895282F882339F18450813A20F4822F52
:102170000E9480190DC0822F805E883060F4277025
:1021800081E090E001C0880F2A95EAF70E94AA1921
:102190000E94D9190895822F855A833028F480E04F
:1021A00090E00E94B70E0895285A233120F480E071
:1021B00090E00E94CF0E08951F93182F882309F4F2
:1021C000A7C08450813A50F4812F0E949421882323
:1021D00009F09EC0812F0E9462190DC0812F805E80
:1021E000883060F4177081E090E001C0880F1A9584
:1021F000EAF70E94A4190E94D9198AC0812F855A32
:102200008330A0F4153A19F481E890E00CC0163A36
:1022100019F482E890E007C0173A19F080E090E0E6
:1022200002C083E890E00E94B70E72C0812F885AE6
:10223000833108F06DC0183A19F482EE90E066C060
:10224000193A19F489EE90E061C01A3A19F48AEE4D
:1022500090E05CC01B3A19F485EB90E057C01C3A43
:1022600019F486EB90E052C01B3B19F483EB90E02D
:102270004DC01C3B19F484EB90E048C01D3A19F4A2
:1022800087EB90E043C0103B19F48CEC90E03EC02B
:102290001E3A19F48DEC90E039C01F3A19F483E826
:1022A00091E034C0113B19F48AE891E02FC0123B51
:1022B00019F482E991E02AC0133B19F484E991E012
:1022C00025C0143B19F481E292E020C0153B19F4BB
:1022D00083E292E01BC0163B19F484E292E016C040
:1022E000173B19F485E292E011C0183B19F486E21D
:1022F00092E00CC0193B19F487E292E007C01A3B48
:1023000019F080E090E002C08AE292E00E94CF0ED5
:102310001F910895AF92BF92CF92DF92EF92FF92FA
:102320000F931F93DF93CF93CDB7DEB72A970FB6E6
:10233000F894DEBF0FBECDBF5C01DE011196FC013B
:1023400085E001900D928150E1F70B81F501F58058
:10235000F2944FE0F422DE011696FE01319685E0FC
:1023600001900D928150E1F73E812F8189859A85F8
:10237000892B09F4E8C12F3F09F0BCC13F3F09F0A8
:10238000B9C1E1C18D2D8F70222311F4182F03C024
:10239000182F1295107F002349F0112309F484C1EE
:1023A000812F0E94B4190E94D9197EC18C2D0E94E0
:1023B000B110112309F4C7C1812F0E94BA190E94DC
:1023C000D919C1C18D2D8F70203211F4182F03C07F
:1023D000182F1295107FCC2021F0F1E0CF1629F5AF
:1023E00014C0002349F0FF2051F121E0F21639F525
:1023F000812F0E94C419A7C1FF2021F081E0F816A7
:1024000009F4A1C10E94C71923C1002349F0E5E0E6
:10241000EF1508F498C10E94A119812381F018C119
:10242000F4E0FF1508F48FC113C1002361F0FF2011
:1024300031F0F501858180FF37C18F708583812F51
:102440000E94AA1080C1FF2009F402C138C18D2D5D
:1024500086958695837090E0009721F0019709F0AA
:1024600072C10AC0002319F0C601937002C080E057
:1024700090E00E94B70E67C1002319F0C601937067
:1024800002C080E090E00E94CF0E5DC18D2D837070
:1024900009F05EC0002309F056C12C2D2295269527
:1024A0002770220F220F8C2D8F70E82EFF2400E062
:1024B00010E0022E04C0EE0CFF1C001F111F0A9436
:1024C000D2F7C4FC05C060E070E080E090E00FC08F
:1024D0006FE070E080E090E004C0660F771F881F17
:1024E000991F2A95D2F76095709580959095D6940E
:1024F000D694F3E0DF224D2D50E041305105A9F094
:10250000423051051CF4452B49F01DC142305105A4
:1025100089F04330510509F016C113C06E297F2997
:10252000802B912B0E943D190EC16E297F29802B93
:10253000912B0BC06E297F29802B912B0E942C1987
:1025400002C10E943D19C801B7010E944E19FBC08B
:1025500090E0002311F496958795817009F4F3C0FB
:102560002C2D229526952770220F220F8C2D8F70EF
:10257000E82EFF2400E010E0022E04C0EE0CFF1C49
:10258000001F111F0A94D2F7C4FC05C060E070E080
:1025900080E090E00FC06FE070E080E090E004C069
:1025A000660F771F881F991F2A95D2F7609570953F
:1025B00080959095D694D69423E0D2224D2D50E06C
:1025C00041305105A9F0423051051CF4452B49F02A
:1025D000BAC04230510589F04330510509F0B3C00B
:1025E00013C06E297F29802B912B0E949018ABC0BD
:1025F0006E297F29802B912B0BC06E297F29802B80
:10260000912B0E947F189FC00E949018C801B701AB
:102610000E94A11898C080EFC816F1F08C1520F028
:10262000E0EECE16E8F109C0F2EFCF1651F1CF1669
:1026300018F123EFC216A1F529C01C2D1F708D2D96
:102640008F71002319F00E94EE18F9CE0E94CE1867
:10265000812F0E94A31077C0002329F084E08F15FA
:1026600008F471C004C0E5E0EF1508F46CC08D2DCE
:102670008F710E94B21867C08D2D8F71002329F1D0
:1026800019C08D2D8F710023A9F01FC0002329F0E0
:102690008D2D8F710E940A1956C00E941A1953C0BD
:1026A000002359F0FF2021F08C2D0E94DC104BC03C
:1026B0008D2D8F710E94EE1846C0FF2021F08C2DC9
:1026C0000E94B11040C08D2D8F710E94CE183BC06A
:1026D000FFE0DF22C5016C2D4D2D0E94011A0E94E2
:1026E000B01731C02FE0D222C5016C2D4D2D0E94B4
:1026F000041A29C089819A810E942B186C010E94BA
:102700002A180E9429188D2D82958F7090E08430B0
:10271000910509F49CCE8530910534F42D2D207F50
:1027200002970CF42FCE4ECE8C3091053CF48A30BB
:1027300091050CF070CF089731F4A8CE8C3091053C
:1027400039F20F9779F22A960FB6F894DEBF0FBED2
:10275000CDBFCF91DF911F910F91FF90EF90DF9050
:10276000CF90BF90AF900895DF93CF93CDB7DEB7F2
:102770002B970FB6F894DEBF0FBECDBF342F4F831B
:10278000252F588769877A878B87472F582FFE0117
:10279000319686E0DF011D928A95E9F76B833983D4
:1027A0002A834C835D83432F522F8D819E810E940B
:1027B000F1162B960FB6F894DEBF0FBECDBFCF91AA
:1027C000DF9108950F931F930091730115C010E0DE
:1027D000F801EE0FFF1FE00FF11FEE0FFF1FEC5887
:1027E000FE4F4081518162817381848195810E9475
:1027F00052100F5F1F4F077080917201081739F751
:102800001F910F91089540916C0150916D0160915D
:102810006E0170916F0180917001909171010E9421
:10282000521008950F931F93CF93DF9380917101FE
:1028300082958F7009F06DC080916E01882309F434
:1028400068C0609173010091720140916F015091D5
:10285000700110916D0170916C01EA01C095D095E5
:1028600055C04115510509F44FC01F3F49F480E0A0
:1028700090E07F3F11F481E090E0882309F044C0AC
:10288000262F30E0F901EE0FFF1FE20FF31FDF01EB
:10289000AA0FBB1FAC58BE4F11968C9111971817F9
:1028A00099F58C91781781F5EE0FFF1FEA58FE4FCE
:1028B0008081882349F513968D919C9114978417F4
:1028C000950718F0841B950B02C08C0F9D1F883C48
:1028D0009105D0F4809171018F70806180937101B6
:1028E000F901EE0FFF1FE20FF31FEE0FFF1FE75876
:1028F000FE4F80818F70806180838CE691E00E9422
:102900008A110E94E21305C06F5F6770601709F0BB
:10291000A8CFDF91CF911F910F910895DF92EF9291
:10292000FF920F931F93DF93CF93CDB7DEB76B97D3
:102930000FB6F894DEBF0FBECDBF8C01DC0112963E
:10294000DC9012974C9111965C9111971396ED9033
:10295000FC90149720916F013091700160916D018E
:1029600070916C012115310509F4DBC16F3F09F04D
:1029700003C27F3F09F000C2D4C1E216F30640F063
:10298000C701821B930B883C910508F0EEC008C07C
:10299000209530952E0D3F1D283C310508F0E5C0EF
:1029A00080917101807F09F095C06F3F09F0EAC105
:1029B0007F3F09F0E7C115C0741799F4DD2089F451
:1029C000809171018F708061809371010E94031466
:1029D0008CE691E00E948A1180917101F801858353
:1029E000BCC1FD82EC825A834983DB82DE011696EC
:1029F000FE01319685E001900D928150E1F76885E6
:102A0000DE011B96FE01369685E001900D92815005
:102A1000E1F72C853B858E859F85892B09F451C074
:102A20002F3F09F0B3C13F3F09F0B0C14AC0FD825A
:102A3000EC825A834983DB82DE011B96FE013196CC
:102A400085E001900D928150E1F7FC847B856D85D6
:102A500080917301909172011FC0282F30E0F9011D
:102A6000EE0FFF1FE20FF31FDF01AA0FBB1FAC58D1
:102A7000BE4F11968C911197F81651F48C917817DE
:102A800039F4EE0FFF1FEA58FE4F80816817C9F432
:102A90002F5F3F4F822F87708917F9F68DC19F7086
:102AA00059F0442349F459C19F7031F0D80115966B
:102AB0008C91807F09F451C1405E483008F44DC1CB
:102AC00048C1DD2009F449C1809171018160809382
:102AD000710143C16F3F09F05DC17F3F09F05AC1E9
:102AE00014C0741791F4DD2081F480917101F80114
:102AF0008583C8010E948A11ACE6B1E0F80186E046
:102B000001900D928150E1F720C15A834983898158
:102B10009A810E946210882309F41BC1DD2009F408
:102B200018C130917101832F82958F7090E00297C8
:102B30009CF090916D0120916C01FE01709686E0F1
:102B4000DF011D928A95E9F7998B288BFC8AEB8A25
:102B50003D8BCF010E948A11ACE6B1E0F80186E01E
:102B600001900D928150E1F7EEC080917101807F5C
:102B7000A9F47E2DFD82EC825A834983DB826D2D80
:102B80008D810E9443100CE611E0C8010E948A1159
:102B900086E0F80111928A95E9F7C0C06F3F09F00D
:102BA000FDC07F3F09F0FAC014C0741791F4DD2016
:102BB00081F480917101D80115968C93C8010E940F
:102BC0008A11ECE6F1E086E0DF011D928A95E9F7D3
:102BD000BEC05A83498389819A810E9462108823EA
:102BE00009F4B7C0DD2009F4B4C030917101832F1E
:102BF00082958F7090E002979CF090916D012091EA
:102C00006C01FE01769686E0DF011D928A95E9F758
:102C10009F8B2E8BFA8EE98E3B8FCF010E948A11FB
:102C2000ACE6B1E0F80186E001900D928150E1F749
:102C30008AC06F3F09F0B6C07F3F09F0B3C071C0D2
:102C4000E216F30640F0C701821B930B883C910506
:102C500008F053C008C0209530952E0D3F1D283C2C
:102C6000310508F04AC0DD2009F473C06F3F09F058
:102C70009FC07F3F09F09CC029C0741739F590911F
:102C8000710190FD1AC0892F82958F70B1F0F80103
:102C900095838F3031F08F5F8295807F9F70982B66
:102CA0009583C8010E948A11ACE6B1E0F80186E084
:102CB00001900D928150E1F748C0ACE6B1E0F80117
:102CC00086E001900D928150E1F741C05A8349831B
:102CD00089819A810E946210882349F0ACE6B1E0B4
:102CE000F80186E001900D928150E1F72CC08091AF
:102CF00071018160809371012CC07E2DFD82EC8278
:102D00005A834983DB826D2D8D810E944310ECE64E
:102D1000F1E086E0DF011D928A95E9F70E94031435
:102D20001CC0DD20B1F05A83498389819A810E94B9
:102D30006210882371F0ACE6B1E0F80186E0019002
:102D40000D928150E1F70E9412140E94031481E059
:102D500005C0C8010E948A11FACF80E06B960FB6B9
:102D6000F894DEBF0FBECDBFCF91DF911F910F91C1
:102D7000FF90EF90DF90089580916E01882309F411
:102D800058CFFBCD651709F02CCE16CE613009F473
:102D900098CE4DCE651709F0B8CEA3CE651709F0D1
:102DA00018CF03CF80916E01882309F0BACF48CFA6
:102DB000651709F08BCF61CF5A83498389819A8146
:102DC0000E942B18482F892F82958F70282F30E072
:102DD000223031050CF463CE243031050CF0B9CF2C
:102DE00063CE0F931F93DF93CF93CDB7DEB72C97AE
:102DF0000FB6F894DEBF0FBECDBF4F8358876987EB
:102E00007A878B879C878E01095F1F4FC8010E94BC
:102E10008E148823D9F028853F818A859B85892B4C
:102E200009F46BC02F3F49F480E090E03F3F11F47C
:102E300081E090E0882309F060C04F815885698562
:102E40007A858B859C850E94521057C0DE011196B1
:102E5000F80186E001900D928150E1F7F981EA8155
:102E60004C815D814115510509F447C0EF3F09F0E0
:102E70004CC0FF3F09F049C040C0F983EA835D833D
:102E80004C83F901EE0FFF1FE20FF31FEE0FFF1F40
:102E9000EC58FE4FDE01119686E00D9001928150B4
:102EA000E1F7609372010E94E21327C0919FC00175
:102EB00011248C589E4F0E948E14882309F445C01B
:102EC0008091730190E0FC01EE0FFF1FE80FF91FE6
:102ED000EE0FFF1FEC58FE4F4081518162817381DC
:102EE000848195810E9452108091730190E0019637
:102EF000877090708093730101C016E09091730108
:102F000080917201981791F620C080917201282F4C
:102F100030E02F5F3F4FB901677070702150304033
:102F20008091730190E06817790709F0A6CF0E949D
:102F30009E101092720110927301ECE6F1E086E0AF
:102F4000DF011D928A95E9F7D8CF2C960FB6F89439
:102F5000DEBF0FBECDBFCF91DF911F910F910895BE
:102F6000CF92DF92EF92FF921F93CF93DF93EC010A
:102F7000009709F466C010E090EAC92E9FE0D92EB0
:102F800081E0E82EF12CFE0121969491943748F4CB
:102F9000943008F044C0913079F0923009F051C07B
:102FA0001BC0953709F437C0953750F1892F8458E5
:102FB000803708F046C037C0FE0121969491892FD2
:102FC000805E883060F597708E2D01C0880F9A95CD
:102FD000EAF70E94B4190FC0FE0121969491892F3F
:102FE000805E883058F497708E2D01C0880F9A95B6
:102FF000EAF70E94BA190E94D91919C0892F15C081
:10300000FE01249104C0C6010197F1F7215022234B
:10301000D1F721960CC0FE012196149108C0892F8A
:103020000E94DC1004C0892F8F770E94B110212FDD
:1030300004C0C6010197F1F72150222309F4A3CF60
:10304000F8CFDF91CF911F91FF90EF90DF90CF905D
:10305000089508950895CF92DF92EF92FF920F9313
:103060001F93CF93DF936C01E090A401F090A50132
:103070000091A6011091A7018091A8019091A9014A
:10308000A091AA01B091AB01E82AF92A0A2B1B2BC7
:10309000CFE1D0E0D801C7010C2E04C0B695A795AA
:1030A000979587950A94D2F781709070892B41F09B
:1030B0008C2FB6010E94B31A9C018130910551F406
:1030C00021978FEFCF3FD80729F780E0B6010E9404
:1030D000B31A9C01822FDF91CF911F910F91FF9026
:1030E000EF90DF90CF9008956093A8017093A901AD
:1030F0008093AA019093AB010E948F1008959B01C9
:10310000AC016091A8017091A9018091AA019091F0
:10311000AB0162277327842795270E9474180895AE
:103120009B01AC016091A8017091A9018091AA0155
:103130009091AB0162237323842395230E9474181A
:1031400008959B01AC016091A8017091A901809143
:10315000AA019091AB01622B732B842B952B0E94BB
:103160007418089521E030E040E050E004C0220FE0
:10317000331F441F551F8A95D2F78091A801909163
:10318000A901A091AA01B091AB01282739274A27AC
:103190005B27CA01B9010E947418089521E030E04C
:1031A00040E050E004C0220F331F441F551F8A9592
:1031B000D2F720953095409550958091A801909137
:1031C000A901A091AA01B091AB01282339234A2378
:1031D0005B23CA01B9010E947418089521E030E010
:1031E00040E050E004C0220F331F441F551F8A9552
:1031F000D2F78091A8019091A901A091AA01B09164
:10320000AB01282B392B4A2B5B2BCA01B9010E9439
:103210007418089521E030E040E050E004C0220F2F
:10322000331F441F551F8A95D2F7CA01B9010E9466
:103230007418089560E070E080E090E00E947418D7
:1032400008956093A4017093A5018093A6019093C3
:10325000A7010E948F1008959B01AC016091A40109
:103260007091A5018091A6019091A7016227732713
:10327000842795270E94211908959B01AC01609134
:10328000A4017091A5018091A6019091A7016223EC
:103290007323842395230E94211908959B01AC0177
:1032A0006091A4017091A5018091A6019091A70160
:1032B000622B732B842B952B0E94211908950E9459
:1032C00021190895382FA0910C01B0910D01FD0135
:1032D00020E08FEF9281931791F08F3F19F499239B
:1032E00009F4822F2F5F31962630A1F78F3F39F0F6
:1032F000992787FD9095A80FB91F12963C930895C2
:10330000982F20E030E0E0910C01F0910D01E20FE8
:10331000F31F8281891709F412822F5F3F4F2630F5
:10332000310589F7089581E090E0E0910C01F0917A
:103330000D01E80FF91F1082019688309105A9F759
:1033400008958091B40108959091B401982B9093C1
:10335000B401089580959091B40198239093B4019D
:1033600008951092B40108959091B601982B90930E
:10337000B601089580959091B60198239093B60177
:1033800008951092B60108958093B50108951092A2
:10339000B5010895E0910C01F0910D0191E020E05C
:1033A000818181112F5F9F5F31969830C9F7822FFD
:1033B0000895E0910C01F0910D018091B40180839A
:1033C000E0910C01F0910D0180819091B601892B63
:1033D00080839091B501992369F0E0910C01F091FF
:1033E0000D018081892B80830E94CA19882311F0E6
:1033F0000E94C71980910C0190910D010E94E70E67
:10340000089580E090E008950895282F8D3B50F4B2
:10341000883A28F5853AB0F4843080F4813009F098
:103420009EC08CC0883E30F4803E40F48F3B09F053
:1034300096C087C0803F08F492C07DC0822F90E084
:103440009C018FC0853A19F421E830E48AC0863A9D
:1034500019F023E830E485C022E830E482C0883ADD
:1034600019F422EE34E47DC0893A19F429EE34E4EB
:1034700078C08A3A19F42AEE34E473C08B3A19F40E
:1034800025EB34E46EC08C3A19F426EB34E469C0C1
:103490008B3B19F423EB34E464C08C3B19F424EB2C
:1034A00034E45FC08D3A19F427EB34E45AC0803B12
:1034B00019F42CEC34E455C08E3A19F42DEC34E4B4
:1034C00050C08F3A19F423E835E44BC0813B19F41E
:1034D0002AE835E446C0823B19F422E935E441C0CC
:1034E000833B19F424E935E43CC0843B19F421E220
:1034F00036E437C0853B19F423E236E432C0863B1C
:1035000019F424E236E42DC0873B19F425E236E4B1
:1035100028C0883B19F426E236E423C0893B19F41D
:1035200027E236E41EC08A3B19F020E034E419C0DB
:103530002AE236E416C030E0306513C021E030E006
:1035400010C00E949E1084EF91E020E931E0F90163
:103550003197F1F70197D9F70E94391C02C020E09A
:1035600030E0C90108950E94B004803EB0F4803C70
:1035700020F5813309F460C0823338F4893209F4CC
:1035800053C08A3209F067C05CC08933C9F0823801
:10359000B9F0853309F05FC042C0833E29F1843E13
:1035A00030F4803EA1F0823E09F055C018C0863E3E
:1035B00029F1873E09F04FC026C00E94CF0408952C
:1035C0009091BE0190FD09C091FD07C041C080915E
:1035D000BE0180FF02C089E33BC080EE39C080910C
:1035E000BE0182FD07C004C08091BE0182FF02C0FF
:1035F00082EE2EC084FD0FC083EE2AC08091BE01F2
:1036000083FD07C004C08091BE0183FF02C086EE27
:103610001FC084FF02C080E01BC087EE19C08091EC
:10362000BE0185FF05C006C08091BE0185FF02C0B6
:1036300085E30EC089E20CC08091BE0186FF05C003
:1036400006C08091BE0186FF02C081E301C08AE20C
:103650000E94051A08950E94051A089590930F017B
:1036600080930E010895282F22952F708295807FD8
:10367000282B30E0C9018C7C9070959587959595A5
:10368000879523733070220F331F220F331F822B35
:10369000282F30E0C9018A7A907095958795257515
:1036A0003070220F331F822B08950F931F93192F11
:1036B0000E94331B082F812F0E94331B502F40E0A4
:1036C000282F30E0242B352BC9011F910F9108952D
:1036D000AF92BF92CF92DF92EF92FF920F931F9320
:1036E0007B018C01CB010E94551B5C0178010027F6
:1036F0001127C7010E94551BCC24DD246501BB2482
:10370000AA24A0E0B0E0A82AB92ACA2ADB2AB50177
:10371000C6011F910F91FF90EF90DF90CF90BF9067
:10372000AF9008958091C301843009F11092B801DF
:1037300020E488E190E00FB6F894A89580936000AB
:103740000FBE2093600083B7817F846083BF83B7FF
:10375000816083BF7894889583B78E7F83BF88E12B
:103760000FB6F89480936000109260000FBE089529
:10377000089508951F920F920FB60F9211248F9300
:103780009F93AF93BF938091B801882399F4809160
:10379000B9019091BA01A091BB01B091BC014196D1
:1037A000A11DB11D8093B9019093BA01A093BB01F3
:1037B000B093BC01BF91AF919F918F910F900FBEBD
:1037C0000F901F9018950E949E1008951F930E94BD
:1037D000B81B0E947C050E94B91B10E0812F0E943B
:1037E000DA04611571058105910511F081E004C0CD
:1037F0001F5F163099F780E01F91089582E084BD25
:1038000093E095BD9AEF97BD80936E0008958FB7B2
:10381000F8942091B9013091BA014091BB015091C7
:10382000BC018FBFC90108951F920F920FB60F926E
:1038300011248F939F93AF93BF938091B90190917F
:10384000BA01A091BB01B091BC010196A11DB11DAF
:103850008093B9019093BA01A093BB01B093BC01CE
:10386000BF91AF919F918F910F900FBE0F901F90BE
:1038700018950E94D20BF89480E29EE420E931E092
:10388000F9013197F1F70197D9F787E090EBA7E0BD
:10389000B0EB8093CC019093CD01A093CE01B09377
:1038A000CF012CE088E190E00FB6F894A8958093C2
:1038B00060000FBE20936000FFCFCF92DF92EF92A7
:1038C000FF920F931F93CF93DF93082F10E0812F68
:1038D0000E94DA046B017C01C0E0D0E0D701C60190
:1038E0000C2E04C0B695A795979587950A94D2F7A4
:1038F00081709070892B49F080E06C2F712F0E94AD
:10390000B004081711F481E008C02196C131D10537
:1039100029F71F5F1630D9F680E0DF91CF911F9114
:103920000F91FF90EF90DF90CF9008951F93182F85
:103930008CE20E945D1C882319F0812F0E945D1C7F
:103940001F9108951F93CF93DF930E94111E882328
:1039500011F40E941C1E80E793E00E940E0414E6FE
:10396000C0E4DCE905C00E947C05CE010197F1F7B7
:103970001150C8F789E693E00E940E0489E20E9484
:10398000961C882309F028C18AE20E94961C88238D
:1039900011F00E941C1E85E00E94961C882311F0E5
:1039A0000E94391C0E940C1E8093B70187E00E9480
:1039B000961C8823B9F18BE10E94961C882349F05C
:1039C0009091B701892F869580958170880F9D7F92
:1039D00026C08EE00E94961C882359F09091B70172
:1039E000892F8695869580958170880F880F9B7F9B
:1039F00016C080E10E94961C9091B701882359F06F
:103A0000892F86958695869580958170880F880F79
:103A1000880F977F04C0892F809581709E7F982B97
:103A20009093B7018091B7010E94FC1D0E94021E75
:103A30008093BE0180EE0E94961C882349F08091FD
:103A4000BE01982F909591708E7F892B8093BE0137
:103A500089E30E94961C882359F09091BE01892F1A
:103A6000869580958170880F9D7F982B9093BE01DD
:103A700082EE0E94961C882369F09091BE01892FE6
:103A80008695869580958170880F880F9B7F982BEF
:103A90009093BE0186EE0E94961C882379F0909147
:103AA000BE01892F86958695869580958170880FB1
:103AB000880F880F977F982B9093BE0183EE0E940A
:103AC000961C882369F09091BE01892F82958F7092
:103AD000809581708295807F9F7E982B9093BE0108
:103AE00085E30E94961C882379F09091BE01892F6E
:103AF000829586958770809581708295880F807EEB
:103B00009F7D982B9093BE0181E30E94961C882391
:103B100089F09091BE01892F829586958695837054
:103B2000809581708295880F880F807C9F7B982B71
:103B30009093BE0181E10E94961C882379F08091C8
:103B4000BE01982F991F9927991F21E092279795D9
:103B5000992797958F77892B8093BE018091BE011D
:103B60000E94F01D87E20E94961C182F8EE10E9491
:103B7000961C811112608FE10E94961C81111460C5
:103B800080E20E94961C8111186081E20E94961CBE
:103B90008111106182E20E94961C8111106283E201
:103BA0000E94961C8111106484E20E94961C81116F
:103BB0001068112341F0812F0E94F61D612F70E0E3
:103BC00080E090E007C00E94071E90E0A0E0B0E017
:103BD000BC01CD010E945F19DF91CF911F91089523
:103BE000682F84E090E00E94F7210895682F83E019
:103BF00090E00E94F7210895682F82E090E00E94F3
:103C0000F721089584E090E00E94E921089583E07F
:103C100090E00E94E921089582E090E00E94E9216D
:103C2000089580E090E00E94F12120E08D5E9E4F9B
:103C300009F421E0822F089580E090E06DEE7EEFA0
:103C40000E94052282E090E060E00E94F72183E07C
:103C500090E060E00E94F72184E090E060E00E9444
:103C6000F72185E090E060E00E94F721089580E070
:103C7000089580E0089582E597E00E940E0408957B
:103C80001F93182F00D000D0EDB7FEB731968DE608
:103C900097E0ADB7BEB712969C938E93119712839F
:103CA00013820E94A7040F900F900F900F9061E075
:103CB00070E080E090E004C0660F771F881F991FB6
:103CC0001A95D2F70E945F190E949E101F910895C5
:103CD0001F93873238F58E3108F019C38E3009F4FE
:103CE00073C28F3078F4873009F444C2883020F4EE
:103CF000863009F012C31DC2883081F18B3009F083
:103D00000CC311C2863109F4A4C2873120F480317A
:103D100009F003C36FC2893109F484C28B3109F001
:103D2000FCC237C2883309F4FEC1893350F48932AA
:103D300009F4EBC2853309F4E8C2873209F0EDC219
:103D4000E4C2833409F4E1C2843420F48A3308F4F1
:103D5000E4C2DFC2883409F0E0C2FAC187E695E028
:103D60000E940E0485EA96E00E940E040E94071E3F
:103D700000D000D0EDB7FEB7319622EA36E0ADB7FD
:103D8000BEB712963C932E931197828313820E94A2
:103D9000A7040F900F900F900F9080EA96E00E947A
:103DA0000E040E940C1E182F8DE896E00E940E044F
:103DB00000D000D0EDB7FEB7319688E896E0ADB7F9
:103DC000BEB712969C938E931197128313820E9412
:103DD000A7040F900F900F900F9086E896E00E9436
:103DE0000E048CE796E00E940E0400D000D0EDB7E0
:103DF000FEB7319689E796E0ADB7BEB712969C93B1
:103E00008E931197812F8170828313820E94A70461
:103E10000F900F900F900F9087E796E00E940E048E
:103E20008DE696E00E940E0400D000D0EDB7FEB7FC
:103E300031968AE696E0ADB7BEB712969C938E9304
:103E40001197812F86958170828313820E94A70427
:103E50000F900F900F900F9088E696E00E940E044E
:103E60008CE596E00E940E0400D000D0EDB7FEB7BE
:103E7000319689E596E0ADB7BEB712969C938E93C6
:103E8000119716951695812F8170828313820E9457
:103E9000A7040F900F900F900F9087E596E00E9477
:103EA0000E048EE496E00E940E0400D000D0EDB720
:103EB000FEB731968BE496E0ADB7BEB712969C93F1
:103EC0008E93119716951170128313820E94A70486
:103ED0000F900F900F900F9089E496E00E940E04CF
:103EE0000E94021E182F85E396E00E940E0400D067
:103EF00000D0EDB7FEB7319680E396E0ADB7BEB720
:103F000012969C938E931197128313820E94A7049A
:103F10000F900F900F900F908EE296E00E940E048B
:103F200085E196E00E940E0400D000D0EDB7FEB708
:103F3000319682E196E0ADB7BEB712969C938E9310
:103F40001197812F8170828313820E94A7040F90A2
:103F50000F900F900F9080E196E00E940E0489EF81
:103F600095E00E940E0400D000D0EDB7FEB7319668
:103F700086EF95E0ADB7BEB712969C938E931197DE
:103F8000812F86958170828313820E94A7040F90EF
:103F90000F900F900F9084EF95E00E940E0482EE38
:103FA00095E00E940E0400D000D0EDB7FEB7319628
:103FB0008FED95E0ADB7BEB712969C938E93119797
:103FC000812F869586958170828313820E94A70433
:103FD0000F900F900F900F908DED95E00E940E04C2
:103FE0008BEC95E00E940E0400D000D0EDB7FEB738
:103FF000319688EC95E0ADB7BEB712969C938E9340
:104000001197812F8695869586958170828313827C
:104010000E94A7040F900F900F900F9086EC95E0F0
:104020000E940E048CEB95E00E940E0400D000D09C
:10403000EDB7FEB7319689EB95E0ADB7BEB71296F6
:104040009C938E931197812F829581708283138226
:104050000E94A7040F900F900F900F9087EB95E0B0
:104060000E940E0485EA95E00E940E0400D000D064
:10407000EDB7FEB7319682EA95E0ADB7BEB71296BE
:104080009C938E931197812F829586958170828360
:1040900013820E94A7040F900F900F900F9080EA58
:1040A00095E00E940E0484E895E00E940E0400D082
:1040B00000D0EDB7FEB7319681E895E0ADB7BEB759
:1040C00012969C938E9311971295169516951370D0
:1040D000812F8170828313820E94A7040F900F901A
:1040E0000F900F908FE795E00E940E0487E795E010
:1040F0000E940E0400D000D0EDB7FEB7319684E7E1
:1041000095E0ADB7BEB712969C938E931197169516
:10411000128313820E94A7040F900F900F900F90AC
:1041200082E795E002C085EB96E00E940E0481E0F4
:10413000F9C08091B701807F8093B7010E943B1E38
:1041400083E695E00E940E0481E08093BD01EAC001
:104150000E949E1082E595E00E940E0480E197E2A5
:1041600020E931E0F9013197F1F70197D9F70E9481
:10417000391CDDCF8091B70180FF08C085E495E050
:104180000E940E048091B701807F18C089E395E0FA
:1041900010C08091B701982F969590959170292F16
:1041A000220F8D7F822B8093B701992351F08CE2EF
:1041B00095E00E940E048091B70181608093B70161
:1041C000B6CF8EE195E0B1CF8091B701982F96954B
:1041D000969590959170292F220F220F8B7F822B1D
:1041E0008093B701992319F08FE095E0E2CF8FEF2C
:1041F00094E09BCF8091B701982F969596959695D0
:1042000090959170292F220F220F220F877F822BEA
:104210008093B701992319F083EF94E0CACF86EE1B
:1042200094E083CF87ED94E00E940E048BEA94E043
:104230000E940E0485E794E00E940E048EE494E050
:104240000E940E0488E194E00E940E048DEE93E03B
:104250006CCF8FED93E00E940E040E94AA0E00D056
:1042600000D0EDB7FEB7319625EC33E0ADB7BEB761
:1042700012963C932E931197828313820E94A70477
:10428000EDB7FEB731968EEA93E0ADB7BEB71296A2
:104290009C938E93119780910101828313820E94D7
:1042A000A704EDB7FEB731968BE993E0ADB7BEB783
:1042B00012969C938E931197809140018283138272
:1042C0000E94A7042091B9013091BA014091BB012D
:1042D0005091BC0100D087E893E0EDB7FEB7928320
:1042E0008183ADB7BEB713962D933D934D935C93E9
:1042F00016970E94A70481E0EDB7FEB736960FB679
:10430000F894FEBF0FBEEDBF0DC080E003C08D511D
:1043100001C089530E94401E0ACF85E893E00E94A5
:104320000E0480E01F9108951F93182F8091BD0106
:10433000882319F08130E1F508C0E0910C01F0917B
:104340000D0180818232B1F507C0E0910C01F0913E
:104350000D018081823249F4812F0E94371E88230B
:10436000D1F4812F0E94681E26C0812F0E94391E21
:10437000882389F4143191F0153118F41B3089F435
:1043800004C0193259F0183361F40E943B1E82E7D1
:1043900097E00E940E0481E090E00DC01092BD01F4
:1043A00004C086E797E00E940E0480E090E003C01E
:1043B0001092BD0180E01F910895991B79E004C01F
:1043C000991F961708F0961B881F7A95C9F7809554
:1043D0000895F999FECF92BD81BDF89A992780B5CD
:1043E0000895A8E1B0E042E050E00C940C22262FA2
:1043F000F999FECF1FBA92BD81BD20BD0FB6F894CA
:10440000FA9AF99A0FBE019608950E94F721272F74
:104410000C94F821DC01CB01FC01F999FECF06C018
:10442000F2BDE1BDF89A319600B40D924150504072
:08443000B8F70895F894FFCFDE
:0E44380007014E0725085107EF07B907AC0131
:00000001FF
